{"abi":[{"type":"constructor","inputs":[{"name":"_poolManager","type":"address","internalType":"contract IPoolManager"},{"name":"_escrowVault","type":"address","internalType":"contract IEscrowVault"},{"name":"_insurancePool","type":"address","internalType":"contract InsurancePool"},{"name":"_triggerOracle","type":"address","internalType":"contract TriggerOracle"},{"name":"_reputationEngine","type":"address","internalType":"contract IReputationEngine"},{"name":"_governance","type":"address","internalType":"address"},{"name":"_weth","type":"address","internalType":"address"},{"name":"_usdc","type":"address","internalType":"address"}],"stateMutability":"nonpayable"},{"type":"receive","stateMutability":"payable"},{"type":"function","name":"GOVERNANCE","inputs":[],"outputs":[{"name":"","type":"address","internalType":"address"}],"stateMutability":"view"},{"type":"function","name":"addBaseToken","inputs":[{"name":"token","type":"address","internalType":"address"},{"name":"_minBaseAmount","type":"uint256","internalType":"uint256"}],"outputs":[],"stateMutability":"nonpayable"},{"type":"function","name":"afterAddLiquidity","inputs":[{"name":"","type":"address","internalType":"address"},{"name":"","type":"tuple","internalType":"struct PoolKey","components":[{"name":"currency0","type":"address","internalType":"Currency"},{"name":"currency1","type":"address","internalType":"Currency"},{"name":"fee","type":"uint24","internalType":"uint24"},{"name":"tickSpacing","type":"int24","internalType":"int24"},{"name":"hooks","type":"address","internalType":"contract IHooks"}]},{"name":"","type":"tuple","internalType":"struct ModifyLiquidityParams","components":[{"name":"tickLower","type":"int24","internalType":"int24"},{"name":"tickUpper","type":"int24","internalType":"int24"},{"name":"liquidityDelta","type":"int256","internalType":"int256"},{"name":"salt","type":"bytes32","internalType":"bytes32"}]},{"name":"","type":"int256","internalType":"BalanceDelta"},{"name":"","type":"int256","internalType":"BalanceDelta"},{"name":"","type":"bytes","internalType":"bytes"}],"outputs":[{"name":"","type":"bytes4","internalType":"bytes4"},{"name":"","type":"int256","internalType":"BalanceDelta"}],"stateMutability":"nonpayable"},{"type":"function","name":"afterDonate","inputs":[{"name":"","type":"address","internalType":"address"},{"name":"","type":"tuple","internalType":"struct PoolKey","components":[{"name":"currency0","type":"address","internalType":"Currency"},{"name":"currency1","type":"address","internalType":"Currency"},{"name":"fee","type":"uint24","internalType":"uint24"},{"name":"tickSpacing","type":"int24","internalType":"int24"},{"name":"hooks","type":"address","internalType":"contract IHooks"}]},{"name":"","type":"uint256","internalType":"uint256"},{"name":"","type":"uint256","internalType":"uint256"},{"name":"","type":"bytes","internalType":"bytes"}],"outputs":[{"name":"","type":"bytes4","internalType":"bytes4"}],"stateMutability":"nonpayable"},{"type":"function","name":"afterInitialize","inputs":[{"name":"","type":"address","internalType":"address"},{"name":"","type":"tuple","internalType":"struct PoolKey","components":[{"name":"currency0","type":"address","internalType":"Currency"},{"name":"currency1","type":"address","internalType":"Currency"},{"name":"fee","type":"uint24","internalType":"uint24"},{"name":"tickSpacing","type":"int24","internalType":"int24"},{"name":"hooks","type":"address","internalType":"contract IHooks"}]},{"name":"","type":"uint160","internalType":"uint160"},{"name":"","type":"int24","internalType":"int24"}],"outputs":[{"name":"","type":"bytes4","internalType":"bytes4"}],"stateMutability":"nonpayable"},{"type":"function","name":"afterRemoveLiquidity","inputs":[{"name":"","type":"address","internalType":"address"},{"name":"","type":"tuple","internalType":"struct PoolKey","components":[{"name":"currency0","type":"address","internalType":"Currency"},{"name":"currency1","type":"address","internalType":"Currency"},{"name":"fee","type":"uint24","internalType":"uint24"},{"name":"tickSpacing","type":"int24","internalType":"int24"},{"name":"hooks","type":"address","internalType":"contract IHooks"}]},{"name":"","type":"tuple","internalType":"struct ModifyLiquidityParams","components":[{"name":"tickLower","type":"int24","internalType":"int24"},{"name":"tickUpper","type":"int24","internalType":"int24"},{"name":"liquidityDelta","type":"int256","internalType":"int256"},{"name":"salt","type":"bytes32","internalType":"bytes32"}]},{"name":"","type":"int256","internalType":"BalanceDelta"},{"name":"","type":"int256","internalType":"BalanceDelta"},{"name":"","type":"bytes","internalType":"bytes"}],"outputs":[{"name":"","type":"bytes4","internalType":"bytes4"},{"name":"","type":"int256","internalType":"BalanceDelta"}],"stateMutability":"nonpayable"},{"type":"function","name":"afterSwap","inputs":[{"name":"","type":"address","internalType":"address"},{"name":"key","type":"tuple","internalType":"struct PoolKey","components":[{"name":"currency0","type":"address","internalType":"Currency"},{"name":"currency1","type":"address","internalType":"Currency"},{"name":"fee","type":"uint24","internalType":"uint24"},{"name":"tickSpacing","type":"int24","internalType":"int24"},{"name":"hooks","type":"address","internalType":"contract IHooks"}]},{"name":"","type":"tuple","internalType":"struct SwapParams","components":[{"name":"zeroForOne","type":"bool","internalType":"bool"},{"name":"amountSpecified","type":"int256","internalType":"int256"},{"name":"sqrtPriceLimitX96","type":"uint160","internalType":"uint160"}]},{"name":"","type":"int256","internalType":"BalanceDelta"},{"name":"","type":"bytes","internalType":"bytes"}],"outputs":[{"name":"","type":"bytes4","internalType":"bytes4"},{"name":"","type":"int128","internalType":"int128"}],"stateMutability":"nonpayable"},{"type":"function","name":"allowedBaseTokens","inputs":[{"name":"","type":"address","internalType":"address"}],"outputs":[{"name":"","type":"bool","internalType":"bool"}],"stateMutability":"view"},{"type":"function","name":"bastionRouter","inputs":[],"outputs":[{"name":"","type":"address","internalType":"address"}],"stateMutability":"view"},{"type":"function","name":"beforeAddLiquidity","inputs":[{"name":"sender","type":"address","internalType":"address"},{"name":"key","type":"tuple","internalType":"struct PoolKey","components":[{"name":"currency0","type":"address","internalType":"Currency"},{"name":"currency1","type":"address","internalType":"Currency"},{"name":"fee","type":"uint24","internalType":"uint24"},{"name":"tickSpacing","type":"int24","internalType":"int24"},{"name":"hooks","type":"address","internalType":"contract IHooks"}]},{"name":"params","type":"tuple","internalType":"struct ModifyLiquidityParams","components":[{"name":"tickLower","type":"int24","internalType":"int24"},{"name":"tickUpper","type":"int24","internalType":"int24"},{"name":"liquidityDelta","type":"int256","internalType":"int256"},{"name":"salt","type":"bytes32","internalType":"bytes32"}]},{"name":"hookData","type":"bytes","internalType":"bytes"}],"outputs":[{"name":"","type":"bytes4","internalType":"bytes4"}],"stateMutability":"nonpayable"},{"type":"function","name":"beforeDonate","inputs":[{"name":"","type":"address","internalType":"address"},{"name":"","type":"tuple","internalType":"struct PoolKey","components":[{"name":"currency0","type":"address","internalType":"Currency"},{"name":"currency1","type":"address","internalType":"Currency"},{"name":"fee","type":"uint24","internalType":"uint24"},{"name":"tickSpacing","type":"int24","internalType":"int24"},{"name":"hooks","type":"address","internalType":"contract IHooks"}]},{"name":"","type":"uint256","internalType":"uint256"},{"name":"","type":"uint256","internalType":"uint256"},{"name":"","type":"bytes","internalType":"bytes"}],"outputs":[{"name":"","type":"bytes4","internalType":"bytes4"}],"stateMutability":"nonpayable"},{"type":"function","name":"beforeInitialize","inputs":[{"name":"","type":"address","internalType":"address"},{"name":"","type":"tuple","internalType":"struct PoolKey","components":[{"name":"currency0","type":"address","internalType":"Currency"},{"name":"currency1","type":"address","internalType":"Currency"},{"name":"fee","type":"uint24","internalType":"uint24"},{"name":"tickSpacing","type":"int24","internalType":"int24"},{"name":"hooks","type":"address","internalType":"contract IHooks"}]},{"name":"","type":"uint160","internalType":"uint160"}],"outputs":[{"name":"","type":"bytes4","internalType":"bytes4"}],"stateMutability":"nonpayable"},{"type":"function","name":"beforeRemoveLiquidity","inputs":[{"name":"sender","type":"address","internalType":"address"},{"name":"key","type":"tuple","internalType":"struct PoolKey","components":[{"name":"currency0","type":"address","internalType":"Currency"},{"name":"currency1","type":"address","internalType":"Currency"},{"name":"fee","type":"uint24","internalType":"uint24"},{"name":"tickSpacing","type":"int24","internalType":"int24"},{"name":"hooks","type":"address","internalType":"contract IHooks"}]},{"name":"params","type":"tuple","internalType":"struct ModifyLiquidityParams","components":[{"name":"tickLower","type":"int24","internalType":"int24"},{"name":"tickUpper","type":"int24","internalType":"int24"},{"name":"liquidityDelta","type":"int256","internalType":"int256"},{"name":"salt","type":"bytes32","internalType":"bytes32"}]},{"name":"hookData","type":"bytes","internalType":"bytes"}],"outputs":[{"name":"","type":"bytes4","internalType":"bytes4"}],"stateMutability":"nonpayable"},{"type":"function","name":"beforeSwap","inputs":[{"name":"","type":"address","internalType":"address"},{"name":"key","type":"tuple","internalType":"struct PoolKey","components":[{"name":"currency0","type":"address","internalType":"Currency"},{"name":"currency1","type":"address","internalType":"Currency"},{"name":"fee","type":"uint24","internalType":"uint24"},{"name":"tickSpacing","type":"int24","internalType":"int24"},{"name":"hooks","type":"address","internalType":"contract IHooks"}]},{"name":"params","type":"tuple","internalType":"struct SwapParams","components":[{"name":"zeroForOne","type":"bool","internalType":"bool"},{"name":"amountSpecified","type":"int256","internalType":"int256"},{"name":"sqrtPriceLimitX96","type":"uint160","internalType":"uint160"}]},{"name":"","type":"bytes","internalType":"bytes"}],"outputs":[{"name":"","type":"bytes4","internalType":"bytes4"},{"name":"","type":"int256","internalType":"BeforeSwapDelta"},{"name":"","type":"uint24","internalType":"uint24"}],"stateMutability":"nonpayable"},{"type":"function","name":"defaultLockDuration","inputs":[],"outputs":[{"name":"","type":"uint40","internalType":"uint40"}],"stateMutability":"view"},{"type":"function","name":"defaultVestingDuration","inputs":[],"outputs":[{"name":"","type":"uint40","internalType":"uint40"}],"stateMutability":"view"},{"type":"function","name":"escrowVault","inputs":[],"outputs":[{"name":"","type":"address","internalType":"contract IEscrowVault"}],"stateMutability":"view"},{"type":"function","name":"forceRemoveIssuerLP","inputs":[{"name":"poolId","type":"bytes32","internalType":"PoolId"}],"outputs":[],"stateMutability":"nonpayable"},{"type":"function","name":"getHookPermissions","inputs":[],"outputs":[{"name":"","type":"tuple","internalType":"struct Hooks.Permissions","components":[{"name":"beforeInitialize","type":"bool","internalType":"bool"},{"name":"afterInitialize","type":"bool","internalType":"bool"},{"name":"beforeAddLiquidity","type":"bool","internalType":"bool"},{"name":"afterAddLiquidity","type":"bool","internalType":"bool"},{"name":"beforeRemoveLiquidity","type":"bool","internalType":"bool"},{"name":"afterRemoveLiquidity","type":"bool","internalType":"bool"},{"name":"beforeSwap","type":"bool","internalType":"bool"},{"name":"afterSwap","type":"bool","internalType":"bool"},{"name":"beforeDonate","type":"bool","internalType":"bool"},{"name":"afterDonate","type":"bool","internalType":"bool"},{"name":"beforeSwapReturnDelta","type":"bool","internalType":"bool"},{"name":"afterSwapReturnDelta","type":"bool","internalType":"bool"},{"name":"afterAddLiquidityReturnDelta","type":"bool","internalType":"bool"},{"name":"afterRemoveLiquidityReturnDelta","type":"bool","internalType":"bool"}]}],"stateMutability":"pure"},{"type":"function","name":"getPoolCommitment","inputs":[{"name":"poolId","type":"bytes32","internalType":"PoolId"}],"outputs":[{"name":"","type":"tuple","internalType":"struct BastionHook.PoolCommitment","components":[{"name":"lockDuration","type":"uint40","internalType":"uint40"},{"name":"vestingDuration","type":"uint40","internalType":"uint40"},{"name":"maxSingleLpRemovalBps","type":"uint16","internalType":"uint16"},{"name":"maxCumulativeLpRemovalBps","type":"uint16","internalType":"uint16"},{"name":"maxDailySellBps","type":"uint16","internalType":"uint16"},{"name":"createdAt","type":"uint40","internalType":"uint40"},{"name":"isSet","type":"bool","internalType":"bool"}]}],"stateMutability":"view"},{"type":"function","name":"getPoolInfo","inputs":[{"name":"poolId","type":"bytes32","internalType":"PoolId"}],"outputs":[{"name":"issuer","type":"address","internalType":"address"},{"name":"escrowId","type":"uint256","internalType":"uint256"},{"name":"issuedToken","type":"address","internalType":"address"},{"name":"totalLiquidity","type":"uint256","internalType":"uint256"}],"stateMutability":"view"},{"type":"function","name":"getPoolIssuer","inputs":[{"name":"poolId","type":"bytes32","internalType":"PoolId"}],"outputs":[{"name":"","type":"address","internalType":"address"}],"stateMutability":"view"},{"type":"function","name":"insurancePool","inputs":[],"outputs":[{"name":"","type":"address","internalType":"contract InsurancePool"}],"stateMutability":"view"},{"type":"function","name":"isCommitmentStricterThanDefault","inputs":[{"name":"poolId","type":"bytes32","internalType":"PoolId"}],"outputs":[{"name":"","type":"bool","internalType":"bool"}],"stateMutability":"view"},{"type":"function","name":"isIssuer","inputs":[{"name":"poolId","type":"bytes32","internalType":"PoolId"},{"name":"account","type":"address","internalType":"address"}],"outputs":[{"name":"","type":"bool","internalType":"bool"}],"stateMutability":"view"},{"type":"function","name":"maxPoolTVL","inputs":[],"outputs":[{"name":"","type":"uint256","internalType":"uint256"}],"stateMutability":"view"},{"type":"function","name":"minBaseAmount","inputs":[{"name":"","type":"address","internalType":"address"}],"outputs":[{"name":"","type":"uint256","internalType":"uint256"}],"stateMutability":"view"},{"type":"function","name":"minLockDuration","inputs":[],"outputs":[{"name":"","type":"uint40","internalType":"uint40"}],"stateMutability":"view"},{"type":"function","name":"minVestingDuration","inputs":[],"outputs":[{"name":"","type":"uint40","internalType":"uint40"}],"stateMutability":"view"},{"type":"function","name":"poolManager","inputs":[],"outputs":[{"name":"","type":"address","internalType":"contract IPoolManager"}],"stateMutability":"view"},{"type":"function","name":"removeBaseToken","inputs":[{"name":"token","type":"address","internalType":"address"}],"outputs":[],"stateMutability":"nonpayable"},{"type":"function","name":"reputationEngine","inputs":[],"outputs":[{"name":"","type":"address","internalType":"contract IReputationEngine"}],"stateMutability":"view"},{"type":"function","name":"setBastionRouter","inputs":[{"name":"router","type":"address","internalType":"address"}],"outputs":[],"stateMutability":"nonpayable"},{"type":"function","name":"setDefaultLockDuration","inputs":[{"name":"newDuration","type":"uint40","internalType":"uint40"}],"outputs":[],"stateMutability":"nonpayable"},{"type":"function","name":"setDefaultVestingDuration","inputs":[{"name":"newDuration","type":"uint40","internalType":"uint40"}],"outputs":[],"stateMutability":"nonpayable"},{"type":"function","name":"setMaxPoolTVL","inputs":[{"name":"newMaxTVL","type":"uint256","internalType":"uint256"}],"outputs":[],"stateMutability":"nonpayable"},{"type":"function","name":"setMinLockDuration","inputs":[{"name":"newDuration","type":"uint40","internalType":"uint40"}],"outputs":[],"stateMutability":"nonpayable"},{"type":"function","name":"setMinVestingDuration","inputs":[{"name":"newDuration","type":"uint40","internalType":"uint40"}],"outputs":[],"stateMutability":"nonpayable"},{"type":"function","name":"syncFeeRate","inputs":[],"outputs":[],"stateMutability":"nonpayable"},{"type":"function","name":"transferGovernance","inputs":[{"name":"newGovernance","type":"address","internalType":"address"}],"outputs":[],"stateMutability":"nonpayable"},{"type":"function","name":"triggerOracle","inputs":[],"outputs":[{"name":"","type":"address","internalType":"contract TriggerOracle"}],"stateMutability":"view"},{"type":"function","name":"updateMinBaseAmount","inputs":[{"name":"token","type":"address","internalType":"address"},{"name":"_minBaseAmount","type":"uint256","internalType":"uint256"}],"outputs":[],"stateMutability":"nonpayable"},{"type":"event","name":"BaseTokenAdded","inputs":[{"name":"token","type":"address","indexed":true,"internalType":"address"},{"name":"minAmount","type":"uint256","indexed":false,"internalType":"uint256"}],"anonymous":false},{"type":"event","name":"BaseTokenRemoved","inputs":[{"name":"token","type":"address","indexed":true,"internalType":"address"}],"anonymous":false},{"type":"event","name":"BastionRouterSet","inputs":[{"name":"router","type":"address","indexed":true,"internalType":"address"}],"anonymous":false},{"type":"event","name":"DefaultLockDurationUpdated","inputs":[{"name":"newDuration","type":"uint256","indexed":false,"internalType":"uint256"}],"anonymous":false},{"type":"event","name":"DefaultVestingDurationUpdated","inputs":[{"name":"newDuration","type":"uint256","indexed":false,"internalType":"uint256"}],"anonymous":false},{"type":"event","name":"EscrowCreated","inputs":[{"name":"poolId","type":"bytes32","indexed":true,"internalType":"PoolId"},{"name":"escrowId","type":"uint256","indexed":true,"internalType":"uint256"},{"name":"issuer","type":"address","indexed":true,"internalType":"address"}],"anonymous":false},{"type":"event","name":"ExternalCallFailed","inputs":[{"name":"target","type":"string","indexed":false,"internalType":"string"},{"name":"poolId","type":"bytes32","indexed":true,"internalType":"PoolId"}],"anonymous":false},{"type":"event","name":"ForceRemovalExecuted","inputs":[{"name":"poolId","type":"bytes32","indexed":true,"internalType":"PoolId"},{"name":"ethAmount","type":"uint256","indexed":false,"internalType":"uint256"},{"name":"token","type":"address","indexed":false,"internalType":"address"},{"name":"tokenAmount","type":"uint256","indexed":false,"internalType":"uint256"}],"anonymous":false},{"type":"event","name":"GovernanceTransferred","inputs":[{"name":"oldGov","type":"address","indexed":true,"internalType":"address"},{"name":"newGov","type":"address","indexed":true,"internalType":"address"}],"anonymous":false},{"type":"event","name":"InsuranceFeeDeposited","inputs":[{"name":"poolId","type":"bytes32","indexed":true,"internalType":"PoolId"},{"name":"amount","type":"uint256","indexed":false,"internalType":"uint256"}],"anonymous":false},{"type":"event","name":"IssuerRegistered","inputs":[{"name":"poolId","type":"bytes32","indexed":true,"internalType":"PoolId"},{"name":"issuer","type":"address","indexed":true,"internalType":"address"},{"name":"issuedToken","type":"address","indexed":false,"internalType":"address"}],"anonymous":false},{"type":"event","name":"IssuerSaleReported","inputs":[{"name":"poolId","type":"bytes32","indexed":true,"internalType":"PoolId"},{"name":"issuer","type":"address","indexed":true,"internalType":"address"},{"name":"amount","type":"uint256","indexed":false,"internalType":"uint256"}],"anonymous":false},{"type":"event","name":"LPRemovalReported","inputs":[{"name":"poolId","type":"bytes32","indexed":true,"internalType":"PoolId"},{"name":"amount","type":"uint256","indexed":false,"internalType":"uint256"},{"name":"totalLP","type":"uint256","indexed":false,"internalType":"uint256"}],"anonymous":false},{"type":"event","name":"MaxPoolTVLUpdated","inputs":[{"name":"newMaxTVL","type":"uint256","indexed":false,"internalType":"uint256"}],"anonymous":false},{"type":"event","name":"MinBaseAmountUpdated","inputs":[{"name":"token","type":"address","indexed":true,"internalType":"address"},{"name":"newMinAmount","type":"uint256","indexed":false,"internalType":"uint256"}],"anonymous":false},{"type":"event","name":"MinLockDurationUpdated","inputs":[{"name":"newDuration","type":"uint256","indexed":false,"internalType":"uint256"}],"anonymous":false},{"type":"event","name":"MinVestingDurationUpdated","inputs":[{"name":"newDuration","type":"uint256","indexed":false,"internalType":"uint256"}],"anonymous":false},{"type":"event","name":"PoolCommitmentSet","inputs":[{"name":"poolId","type":"bytes32","indexed":true,"internalType":"PoolId"},{"name":"issuer","type":"address","indexed":true,"internalType":"address"},{"name":"commitment","type":"tuple","indexed":false,"internalType":"struct BastionHook.PoolCommitment","components":[{"name":"lockDuration","type":"uint40","internalType":"uint40"},{"name":"vestingDuration","type":"uint40","internalType":"uint40"},{"name":"maxSingleLpRemovalBps","type":"uint16","internalType":"uint16"},{"name":"maxCumulativeLpRemovalBps","type":"uint16","internalType":"uint16"},{"name":"maxDailySellBps","type":"uint16","internalType":"uint16"},{"name":"createdAt","type":"uint40","internalType":"uint40"},{"name":"isSet","type":"bool","internalType":"bool"}]}],"anonymous":false},{"type":"error","name":"BaseTokenAlreadySet","inputs":[{"name":"token","type":"address","internalType":"address"}]},{"type":"error","name":"BaseTokenNotSet","inputs":[{"name":"token","type":"address","internalType":"address"}]},{"type":"error","name":"BelowMinBaseAmount","inputs":[{"name":"provided","type":"uint256","internalType":"uint256"},{"name":"required","type":"uint256","internalType":"uint256"}]},{"type":"error","name":"CommitmentTooLenient","inputs":[]},{"type":"error","name":"EscrowTriggered","inputs":[]},{"type":"error","name":"ExceedsMaxTVL","inputs":[]},{"type":"error","name":"ExceedsVestedAmount","inputs":[{"name":"requested","type":"uint128","internalType":"uint128"},{"name":"removable","type":"uint128","internalType":"uint128"}]},{"type":"error","name":"HookNotImplemented","inputs":[]},{"type":"error","name":"InvalidDuration","inputs":[]},{"type":"error","name":"InvalidHookData","inputs":[]},{"type":"error","name":"LockDurationTooShort","inputs":[]},{"type":"error","name":"MustIdentifyUser","inputs":[]},{"type":"error","name":"NoAllowedBaseToken","inputs":[]},{"type":"error","name":"OnlyEscrowVault","inputs":[]},{"type":"error","name":"OnlyGovernance","inputs":[]},{"type":"error","name":"OnlyOwner","inputs":[]},{"type":"error","name":"OnlyPoolManager","inputs":[]},{"type":"error","name":"RouterAlreadySet","inputs":[]},{"type":"error","name":"RouterNotSet","inputs":[]},{"type":"error","name":"VestingDurationTooShort","inputs":[]}],"bytecode":{"object":"0x610120604052348015610010575f80fd5b50604051614d21380380614d2183398101604081905261002f9161015d565b6001600160a01b0397881660805295871660a05293861660c05291851660e052841661010052600b80549185166001600160a01b0319928316811790915560088054831690911790555f600c819055600d805471093a800000093a8000006d6c800000093a809316929092179091557fec8156718a8372b1db44bb411437d0870f3e3790d4a08526d024ce1b0b668f6b805460ff199081166001908117909255670de0b6b3a76400007f13da86008ba1c6922daee3e07db95305ef49ebced9f5467a0b8613fcc6b343e381905593861683526009602081815260408086208054851686179055600a808352818720979097559690971684528652848320805490911690911790559252902063773594009055610208565b6001600160a01b038116811461015a575f80fd5b50565b5f805f805f805f80610100898b031215610175575f80fd5b885161018081610146565b60208a015190985061019181610146565b60408a01519097506101a281610146565b60608a01519096506101b381610146565b60808a01519095506101c481610146565b60a08a01519094506101d581610146565b60c08a01519093506101e681610146565b60e08a01519092506101f781610146565b809150509295985092959890939650565b60805160a05160c05160e05161010051614a116103105f395f81816108820152612e7901525f81816109b801528181610c900152818161151d015281816118ed0152818161202d01528181612ca201528181612d9b015261352d01525f818161079601528181611cb7015281816123eb01528181612523015281816125f601528181612b56015281816132b30152818161333101526133d801525f81816107440152818161110e015281816112c8015281816113a601528181611475015281816117a8015281816121490152612bf401525f8181610a7101528181610fda0152818161163301528181611aeb01528181611e6c01528181613233015261349e0152614a115ff3fe60806040526004361061024c575f3560e01c80638398b03911610134578063bbd1e122116100b3578063d420a4d511610078578063d420a4d5146109f9578063d6a298e914610a18578063d80317b614610a3c578063dc4c90d314610a60578063dc98354e14610a93578063e1b4af6914610819575f80fd5b8063bbd1e12214610852578063c3f677ef14610871578063c4e833ce146108a4578063d1fe9536146109a7578063d38bfff4146109da575f80fd5b8063ab2adc00116100f9578063ab2adc0014610785578063ac23186e146107b8578063b47b2fb1146107d7578063b6a8b0fa14610819578063b7ac5a7714610833575f80fd5b80638398b0391461061d578063854e8d5c146106485780638a2ae60b146107335780639f063efc14610567578063a626a7a614610766575f80fd5b80632600dc18116101cb5780635fa6ec49116101905780635fa6ec49146105345780636023152e146105485780636c2bbe7e146105675780636e3bed58146105a65780636fe7e6eb146105da57806374e555b6146105f9575f80fd5b80632600dc181461045b57806337877abd1461047e578063425e0d441461049d5780634e618ee4146104bc578063575e24b4146104ea575f80fd5b80631a40bf93116102115780631a40bf93146103a75780631b7d91de146103c65780631fef0820146103e557806321d0ee7014610404578063259982e51461043c575f80fd5b806309f2c019146102575780630aa67e7f146102ed5780630cddf4561461030e5780630fd6699b1461033d5780631462783414610370575f80fd5b3661025357005b5f80fd5b348015610262575f80fd5b506102af610271366004613d70565b5f908152602081815260408083205460018352818420546003845282852054600290945291909320546001600160a01b039384169491939092169190565b6040516102e494939291906001600160a01b039485168152602081019390935292166040820152606081019190915260800190565b60405180910390f35b3480156102f8575f80fd5b5061030c610307366004613d9e565b610aad565b005b348015610319575f80fd5b5061032d610328366004613d70565b610b86565b60405190151581526020016102e4565b348015610348575f80fd5b50600d5461035a9064ffffffffff1681565b60405164ffffffffff90911681526020016102e4565b34801561037b575f80fd5b50600b5461038f906001600160a01b031681565b6040516001600160a01b0390911681526020016102e4565b3480156103b2575f80fd5b5061030c6103c1366004613dda565b610d8a565b3480156103d1575f80fd5b5061030c6103e0366004613d9e565b610e54565b3480156103f0575f80fd5b5061030c6103ff366004613dda565b610f0e565b34801561040f575f80fd5b5061042361041e366004613e60565b610fce565b6040516001600160e01b031990911681526020016102e4565b348015610447575f80fd5b50610423610456366004613e60565b611627565b348015610466575f80fd5b50610470600c5481565b6040519081526020016102e4565b348015610489575f80fd5b5061030c610498366004613d70565b6119b5565b3480156104a8575f80fd5b5061030c6104b7366004613ed7565b611a3f565b3480156104c7575f80fd5b5061032d6104d6366004613ed7565b60096020525f908152604090205460ff1681565b3480156104f5575f80fd5b50610509610504366004613f02565b611add565b604080516001600160e01b03199094168452602084019290925262ffffff16908201526060016102e4565b34801561053f575f80fd5b5061030c611cb5565b348015610553575f80fd5b5061032d610562366004613f5c565b611d53565b348015610572575f80fd5b50610586610581366004613f8a565b611d76565b604080516001600160e01b031990931683526020830191909152016102e4565b3480156105b1575f80fd5b5061038f6105c0366004613d70565b5f908152602081905260409020546001600160a01b031690565b3480156105e5575f80fd5b506104236105f4366004614023565b611d91565b348015610604575f80fd5b50600d5461035a90600160781b900464ffffffffff1681565b348015610628575f80fd5b50610470610637366004613ed7565b600a6020525f908152604090205481565b348015610653575f80fd5b50610726610662366004613d70565b6040805160e0810182525f80825260208201819052918101829052606081018290526080810182905260a0810182905260c0810191909152505f90815260066020908152604091829020825160e081018452905464ffffffffff8082168352600160281b8204811693830193909352600160501b810461ffff90811694830194909452600160601b810484166060830152600160701b81049093166080820152600160801b830490911660a0820152600160a81b90910460ff16151560c082015290565b6040516102e4919061407c565b34801561073e575f80fd5b5061038f7f000000000000000000000000000000000000000000000000000000000000000081565b348015610771575f80fd5b5060075461038f906001600160a01b031681565b348015610790575f80fd5b5061038f7f000000000000000000000000000000000000000000000000000000000000000081565b3480156107c3575f80fd5b5061030c6107d2366004613dda565b611dab565b3480156107e2575f80fd5b506107f66107f13660046140fc565b611e5f565b604080516001600160e01b03199093168352600f9190910b6020830152016102e4565b348015610824575f80fd5b506104236105f436600461417d565b34801561083e575f80fd5b5061030c61084d366004613d70565b61213e565b34801561085d575f80fd5b5061030c61086c366004613ed7565b6126a6565b34801561087c575f80fd5b5061038f7f000000000000000000000000000000000000000000000000000000000000000081565b3480156108af575f80fd5b5061099a604080516101c0810182525f80825260208201819052918101829052606081018290526080810182905260a0810182905260c0810182905260e08101829052610100810182905261012081018290526101408101829052610160810182905261018081018290526101a081019190915250604080516101c0810182525f808252602082018190526001928201839052606082018190526080820183905260a0820181905260c0820183905260e0820183905261010082018190526101208201819052610140820192909252610160810182905261018081018290526101a081019190915290565b6040516102e491906141d7565b3480156109b2575f80fd5b5061038f7f000000000000000000000000000000000000000000000000000000000000000081565b3480156109e5575f80fd5b5061030c6109f4366004613ed7565b612769565b348015610a04575f80fd5b5061030c610a13366004613dda565b61280c565b348015610a23575f80fd5b50600d5461035a90600160501b900464ffffffffff1681565b348015610a47575f80fd5b50600d5461035a90600160281b900464ffffffffff1681565b348015610a6b575f80fd5b5061038f7f000000000000000000000000000000000000000000000000000000000000000081565b348015610a9e575f80fd5b506104236105f43660046142f1565b600b546001600160a01b03163314610ad8576040516354348f0360e01b815260040160405180910390fd5b6001600160a01b0382165f9081526009602052604090205460ff1615610b215760405163ab90e08f60e01b81526001600160a01b03831660048201526024015b60405180910390fd5b6001600160a01b0382165f818152600960209081526040808320805460ff19166001179055600a82529182902084905590518381527f4e1e19819b9bfe79faf800def389d460793f6ae7f24841974445c76cc338f0ad91015b60405180910390a25050565b5f818152600660209081526040808320815160e081018352905464ffffffffff8082168352600160281b820481169483019490945261ffff600160501b8204811693830193909352600160601b810483166060830152600160701b81049092166080820152600160801b820490921660a083015260ff600160a81b90910416151560c08201819052610c1a57505f92915050565b5f816020015164ffffffffff16825f015164ffffffffff16610c3c919061434c565b600d549091505f90610c5e9064ffffffffff600160281b82048116911661434c565b90508069ffffffffffffffffffff168269ffffffffffffffffffff161115610c8b57506001949350505050565b5f805f7f00000000000000000000000000000000000000000000000000000000000000006001600160a01b031663af0ab33f6040518163ffffffff1660e01b815260040160c060405180830381865afa158015610cea573d5f803e3d5ffd5b505050506040513d601f19601f82011682018060405250810190610d0e919061437d565b9550505050925092508261ffff16866040015161ffff161015610d3957506001979650505050505050565b8061ffff16866060015161ffff161015610d5b57506001979650505050505050565b8161ffff16866080015161ffff161015610d7d57506001979650505050505050565b505f979650505050505050565b600b546001600160a01b03163314610db5576040516354348f0360e01b815260040160405180910390fd5b62093a808164ffffffffff161080610dd757506301e133808164ffffffffff16115b15610df557604051637616640160e01b815260040160405180910390fd5b600d805469ffffffffff00000000001916600160281b64ffffffffff8416908102919091179091556040519081527f413575c62ffbf7629bd9be434c05ec22f05e00ea14a0e607bd2643c53a1141c2906020015b60405180910390a150565b600b546001600160a01b03163314610e7f576040516354348f0360e01b815260040160405180910390fd5b6001600160a01b0382165f9081526009602052604090205460ff16610ec257604051632c512b5360e21b81526001600160a01b0383166004820152602401610b18565b6001600160a01b0382165f818152600a602052604090819020839055517f1bead881fbea2dddd72d07b3d94938b8c712c88205c2d54ea6b0d305b1c78d5b90610b7a9084815260200190565b600b546001600160a01b03163314610f39576040516354348f0360e01b815260040160405180910390fd5b620151808164ffffffffff161080610f5a575062278d008164ffffffffff16115b15610f7857604051637616640160e01b815260040160405180910390fd5b600d805464ffffffffff60501b1916600160501b64ffffffffff8416908102919091179091556040519081527fed864a35f32fe4475ebf4b720c14da91bfa90be90a23af5dc7ee8381f4346e5d90602001610e49565b5f336001600160a01b037f000000000000000000000000000000000000000000000000000000000000000016146110185760405163f655705d60e01b815260040160405180910390fd5b5f61103261102b36889003880188614410565b60a0902090565b5f818152602081905260409020549091506001600160a01b031680611063575063021d0ee760e41b915061161e9050565b5f80876040013512611075575f61108c565b61108260408801356144b4565b6001600160801b03165b9050805f036111b4575f838152600460205260409020546001600160a01b038a811691161480156110bc57508415155b156111a1575f6110ce86880188613ed7565b9050826001600160a01b0316816001600160a01b03160361119f575f848152600160205260409081902054905163111d7f7160e11b8152600481018290527f00000000000000000000000000000000000000000000000000000000000000006001600160a01b03169063223afee290602401602060405180830381865afa15801561115b573d5f803e3d5ffd5b505050506040513d601f19601f8201168201806040525081019061117f91906144db565b1561119d576040516314e6fd6b60e01b815260040160405180910390fd5b505b505b5063021d0ee760e41b925061161e915050565b7feb616091e4a683ec052a1308eb950224bcc4f473589e1377a2cfb7fb14cd8cbe5c600103611232575f8381526002602052604090205480821161120f576111fc82826144f6565b5f8581526002602052604090205561121e565b5f848152600260205260408120555b5063021d0ee760e41b935061161e92505050565b5f838152600460205260408120546001600160a01b03908116908b160361140b575f869003611274576040516370a05bf960e11b815260040160405180910390fd5b5f61128187890189613ed7565b9050836001600160a01b0316816001600160a01b031603611409575f85815260016020819052604080832054905163352e4fb760e21b8152600481018290529194509185917f00000000000000000000000000000000000000000000000000000000000000006001600160a01b03169063d4b93edc90602401602060405180830381865afa158015611315573d5f803e3d5ffd5b505050506040513d601f19601f820116820180604052508101906113399190614509565b9050806001600160801b0316826001600160801b031611156113815760405163eed750a360e01b81526001600160801b03808416600483015282166024820152604401610b18565b60405163f9357fdd60e01b8152600481018490526001600160801b03831660248201527f00000000000000000000000000000000000000000000000000000000000000006001600160a01b03169063f9357fdd906044015f604051808303815f87803b1580156113ef575f80fd5b505af1158015611401573d5f803e3d5ffd5b505050505050505b505b5f8481526002602052604090205480831161143d5761142a83826144f6565b5f8681526002602052604090205561144c565b5f858152600260205260408120555b81801561145857505f81115b156115d35760405163d6deafc760e01b8152600481018690525f907f00000000000000000000000000000000000000000000000000000000000000006001600160a01b03169063d6deafc790602401602060405180830381865afa1580156114c2573d5f803e3d5ffd5b505050506040513d601f19601f820116820180604052508101906114e6919061452f565b90508015806114f457508042105b156115d157604051637738b95d60e11b81526004810187905260248101859052604481018390527f00000000000000000000000000000000000000000000000000000000000000006001600160a01b03169063ee7172ba906064015f604051808303815f87803b158015611566575f80fd5b505af1925050508015611577575060015b6115d157855f805160206149bc8339815191526040516115c8906020808252601d908201527f547269676765724f7261636c652e7265706f72744c5052656d6f76616c000000604082015260600190565b60405180910390a25b505b604080518481526020810183905286917f57b901fe48f94392a235006cdd68f5a7b044e910de2ce3ed557f35ec4c02e1e5910160405180910390a25063021d0ee760e41b9450505050505b95945050505050565b5f336001600160a01b037f000000000000000000000000000000000000000000000000000000000000000016146116715760405163f655705d60e01b815260040160405180910390fd5b5f61168461102b36889003880188614410565b90505f80866040013513611698575f61169e565b85604001355b5f838152602081905260409020549091506001600160a01b03161580156116c457508315155b15611708575f6116d488886128cc565b90508060ff166002036116f4575063259982e560e01b925061161e915050565b61170283898b858a8a6129ea565b5061180b565b5f816001600160801b031611801561173857505f828152600460205260409020546001600160a01b038981169116145b1561180b57831561180b575f61175085870187613ed7565b5f848152602081905260409020549091506001600160a01b0390811690821603611809575f8381526001602052604090819020549051630de5208b60e01b8152600481018290526001600160801b03841660248201527f00000000000000000000000000000000000000000000000000000000000000006001600160a01b031690630de5208b906044015f604051808303815f87803b1580156117f1575f80fd5b505af1158015611803573d5f803e3d5ffd5b50505050505b505b5f816001600160801b031611801561182457505f600c54115b15611872575f8281526002602052604081205461184b906001600160801b03841690614546565b9050600c548111156118705760405163a84b0dcd60e01b815260040160405180910390fd5b505b6001600160801b038116156119a1575f82815260026020526040812080546001600160801b03841692906118a7908490614546565b90915550505f828152602081905260409020546001600160a01b0316156119a1576040516339eb148760e21b8152600481018390526001600160801b03821660248201527f00000000000000000000000000000000000000000000000000000000000000006001600160a01b03169063e7ac521c906044015f604051808303815f87803b158015611936575f80fd5b505af1925050508015611947575060015b6119a157815f805160206149bc833981519152604051611998906020808252601e908201527f547269676765724f7261636c652e7265706f72744c504164646974696f6e0000604082015260600190565b60405180910390a25b5063259982e560e01b979650505050505050565b600b546001600160a01b031633146119e0576040516354348f0360e01b815260040160405180910390fd5b683635c9adc5dea00000811115611a0a57604051637616640160e01b815260040160405180910390fd5b600c8190556040518181527fe419ee5e9ae59460a7379dd86980aba758a43ddcb4a020f191c8286a486e27cd90602001610e49565b6008546001600160a01b03163314611a6a57604051635fc483c560e01b815260040160405180910390fd5b6007546001600160a01b031615611a9457604051630548895f60e51b815260040160405180910390fd5b600780546001600160a01b0319166001600160a01b0383169081179091556040517f95e0c74ad74bed58e740140619a493de50eb1fa88cac7152be3d4d8c2ed33a97905f90a250565b5f8080336001600160a01b037f00000000000000000000000000000000000000000000000000000000000000001614611b295760405163f655705d60e01b815260040160405180910390fd5b5f611b3c61102b368a90038a018a614410565b5f8181526003602090815260408083205491839052909120549192506001600160a01b039081169116611b80611b7184613036565b836001600160a01b031661308a565b611b9b611b8c84613091565b826001600160a01b031661308a565b6001600160a01b03821615801590611bbb57506001600160a01b03811615155b15611c3957611c39611bcc846130c3565b6040516370a0823160e01b81526001600160a01b0384811660048301528516906370a0823190602401602060405180830381865afa158015611c10573d5f803e3d5ffd5b505050506040513d601f19601f82011682018060405250810190611c34919061452f565b61308a565b6001600160a01b03821615801590611c5457505f8960200135125b15611c96575f611c658b8b856130fd565b90508015611c94575f611c7a858d8d87613153565b6315d7892d60e21b985096505f9550611caa945050505050565b505b506315d7892d60e21b94505f935083925050505b955095509592505050565b7f00000000000000000000000000000000000000000000000000000000000000006001600160a01b031663978bbdb96040518163ffffffff1660e01b8152600401602060405180830381865afa158015611d11573d5f803e3d5ffd5b505050506040513d601f19601f82011682018060405250810190611d359190614559565b600860146101000a81548161ffff021916908361ffff160217905550565b5f828152602081905260409020546001600160a01b038281169116145b92915050565b5f80604051630a85dc2960e01b815260040160405180910390fd5b5f604051630a85dc2960e01b815260040160405180910390fd5b600b546001600160a01b03163314611dd6576040516354348f0360e01b815260040160405180910390fd5b620151808164ffffffffff161080611df757506276a7008164ffffffffff16115b15611e1557604051637616640160e01b815260040160405180910390fd5b600d805464ffffffffff191664ffffffffff83169081179091556040519081527f92f84f6918c0b7e46df75bbb58184668fff4ba2ca47499f870aea28ca1e302a690602001610e49565b5f80336001600160a01b037f00000000000000000000000000000000000000000000000000000000000000001614611eaa5760405163f655705d60e01b815260040160405180910390fd5b5f611ebd61102b368a90038a018a614410565b90505f611ed0611ecc83613036565b5c90565b90506001600160a01b03811615612126575f611eee611ecc84613091565b90506001600160a01b03811615612124575f611f0c611ecc856130c3565b6040516370a0823160e01b81526001600160a01b0384811660048301529192505f918516906370a0823190602401602060405180830381865afa158015611f55573d5f803e3d5ffd5b505050506040513d601f19601f82011682018060405250810190611f79919061452f565b905081811015612121575f611f8e82846144f6565b90505f856001600160a01b03166318160ddd6040518163ffffffff1660e01b8152600401602060405180830381865afa158015611fcd573d5f803e3d5ffd5b505050506040513d601f19601f82011682018060405250810190611ff1919061452f565b9050801561211e57604051637512078960e11b8152600481018890526001600160a01b03868116602483015260448201849052606482018390527f0000000000000000000000000000000000000000000000000000000000000000169063ea240f12906084015f604051808303815f87803b15801561206e575f80fd5b505af192505050801561207f575060015b6120d957865f805160206149bc8339815191526040516120d0906020808252601e908201527f547269676765724f7261636c652e7265706f727449737375657253616c650000604082015260600190565b60405180910390a25b846001600160a01b0316877f6c0d7f1a79eeacd063e6cb8417d9703397b2bdb85fb51a82c57d41c62a1f7db18460405161211591815260200190565b60405180910390a35b50505b50505b505b5063b47b2fb160e01b995f9950975050505050505050565b336001600160a01b037f00000000000000000000000000000000000000000000000000000000000000001614612187576040516326c7939d60e11b815260040160405180910390fd5b6007546001600160a01b03166121b05760405163179ce99f60e01b815260040160405180910390fd5b5f818152600560209081526040808320815160a08101835281546001600160a01b03908116825260018301548082168387015262ffffff600160a01b82041683860152600160b81b9004600290810b6060840152928301541660808201528585529252822054909181900361222457505050565b61224f7feb616091e4a683ec052a1308eb950224bcc4f473589e1377a2cfb7fb14cd8cbe600161308a565b6007546040516320a5240560e11b81526001600160a01b039091169063414a480a9061228190859030906004016145b7565b5f604051808303815f87803b158015612298575f80fd5b505af11580156122aa573d5f803e3d5ffd5b5050600754604051636f61a7cd60e11b81526001600160a01b03909116925063dec34f9a91506122e2908590859030906004016145dd565b5f604051808303815f87803b1580156122f9575f80fd5b505af115801561230b573d5f803e3d5ffd5b505050506123397feb616091e4a683ec052a1308eb950224bcc4f473589e1377a2cfb7fb14cd8cbe5f61308a565b5f83815260026020908152604080832083905560039091528120546001600160a01b03169047908215612466576040516370a0823160e01b81523060048201526001600160a01b038416906370a0823190602401602060405180830381865afa1580156123a8573d5f803e3d5ffd5b505050506040513d601f19601f820116820180604052508101906123cc919061452f565b905080156124665760405163a9059cbb60e01b81526001600160a01b037f0000000000000000000000000000000000000000000000000000000000000000811660048301526024820183905284169063a9059cbb906044016020604051808303815f875af1158015612440573d5f803e3d5ffd5b505050506040513d601f19601f8201168201806040525081019061246491906144db565b505b84515f9081906001600160a01b0380871691160361248a578660200151915061248f565b865191505b6001600160a01b0382161561259e576040516370a0823160e01b81523060048201526001600160a01b038316906370a0823190602401602060405180830381865afa1580156124e0573d5f803e3d5ffd5b505050506040513d601f19601f82011682018060405250810190612504919061452f565b9050801561259e5760405163a9059cbb60e01b81526001600160a01b037f0000000000000000000000000000000000000000000000000000000000000000811660048301526024820183905283169063a9059cbb906044016020604051808303815f875af1158015612578573d5f803e3d5ffd5b505050506040513d601f19601f8201168201806040525081019061259c91906144db565b505b5f8411806125ab57505f83115b806125b557505f81115b1561265157604051634550441760e01b8152600481018990526001600160a01b038681166024830152604482018590528381166064830152608482018390527f00000000000000000000000000000000000000000000000000000000000000001690634550441790869060a4015f604051808303818588803b158015612639575f80fd5b505af115801561264b573d5f803e3d5ffd5b50505050505b604080518581526001600160a01b038716602082015290810184905288907fde211aaa83d820c9f47fc01803017f9737c534def416fd42f3b7da647d7f73a39060600160405180910390a25050505050505050565b600b546001600160a01b031633146126d1576040516354348f0360e01b815260040160405180910390fd5b6001600160a01b0381165f9081526009602052604090205460ff1661271457604051632c512b5360e21b81526001600160a01b0382166004820152602401610b18565b6001600160a01b0381165f818152600960209081526040808320805460ff19169055600a909152808220829055517fdc23a849435922f20a9732eb85192a9d0c1cb34725ebe6d7de0be10212ba02fb9190a250565b600b546001600160a01b03163314612794576040516354348f0360e01b815260040160405180910390fd5b6001600160a01b0381166127bb57604051630d95dd8f60e31b815260040160405180910390fd5b600b80546001600160a01b038381166001600160a01b0319831681179093556040519116919082907f5f56bee8cffbe9a78652a74a60705edede02af10b0bbb888ca44b79a0d42ce80905f90a35050565b600b546001600160a01b03163314612837576040516354348f0360e01b815260040160405180910390fd5b620151808164ffffffffff161080612858575062278d008164ffffffffff16115b1561287657604051637616640160e01b815260040160405180910390fd5b600d805464ffffffffff60781b1916600160781b64ffffffffff8416908102919091179091556040519081527f11a44ba9e7a3b98652f203fb9adffb784470ec7149edc0eb4e8e078e268ec40890602001610e49565b5f806128db6020850185613ed7565b90505f6128ee6040860160208701613ed7565b6001600160a01b038084165f9081526009602052604080822054928416825290205491925060ff908116911681158015612926575080155b1561294457604051630d95dd8f60e31b815260040160405180910390fd5b81801561294e5750805b15612960576002945050505050611d70565b5f8261296c578361296e565b845b90505f61297c89898661347d565b6001600160a01b0383165f908152600a60205260409020549091508110156129db576001600160a01b0382165f908152600a60205260409081902054905163f1044b6b60e01b8152610b18918391600401918252602082015260400190565b50600198975050505050505050565b5f80808080806129fc878901896146cc565b600d54959b5093995091975095509350915064ffffffffff600160501b90910481169085161015612a40576040516349eeb0b360e01b815260040160405180910390fd5b600d5464ffffffffff600160781b90910481169084161015612a7557604051630550e05f60e21b815260040160405180910390fd5b612a828c87868685613528565b855f808e81526020019081526020015f205f6101000a8154816001600160a01b0302191690836001600160a01b031602179055508460035f8e81526020019081526020015f205f6101000a8154816001600160a01b0302191690836001600160a01b031602179055508960045f8e81526020019081526020015f205f6101000a8154816001600160a01b0302191690836001600160a01b031602179055508a60055f8e81526020019081526020015f208181612b3e91906147c2565b5050600854600160a01b900461ffff165f03612bf1577f00000000000000000000000000000000000000000000000000000000000000006001600160a01b031663978bbdb96040518163ffffffff1660e01b8152600401602060405180830381865afa158015612bb0573d5f803e3d5ffd5b505050506040513d601f19601f82011682018060405250810190612bd49190614559565b600860146101000a81548161ffff021916908361ffff1602179055505b5f7f00000000000000000000000000000000000000000000000000000000000000006001600160a01b031663b4e332f98e898d8989896040518763ffffffff1660e01b8152600401612c4896959493929190614865565b6020604051808303815f875af1158015612c64573d5f803e3d5ffd5b505050506040513d601f19601f82011682018060405250810190612c88919061452f565b90508060015f8f81526020019081526020015f20819055507f00000000000000000000000000000000000000000000000000000000000000006001600160a01b0316632987bd988e89896001600160a01b03166318160ddd6040518163ffffffff1660e01b8152600401602060405180830381865afa158015612d0d573d5f803e3d5ffd5b505050506040513d601f19601f82011682018060405250810190612d31919061452f565b6040516001600160e01b031960e086901b16815260048101939093526001600160a01b0391821660248401526044830152891660648201526084015f604051808303815f87803b158015612d83575f80fd5b505af1158015612d95573d5f803e3d5ffd5b505050507f00000000000000000000000000000000000000000000000000000000000000006001600160a01b03166320c9f13a8e846040518363ffffffff1660e01b8152600401612e4a9291905f60e08201905083825261ffff835116602083015261ffff602084015116604083015264ffffffffff604084015116606083015261ffff606084015116608083015264ffffffffff60808401511660a083015261ffff60a08401511660c08301529392505050565b5f604051808303815f87803b158015612e61575f80fd5b505af1158015612e73573d5f803e3d5ffd5b505050507f00000000000000000000000000000000000000000000000000000000000000006001600160a01b031663375e3c08886004898e6001600160801b03168887604051602001612efe94939291906001600160a01b03949094168452602080850193909352815161ffff90811660408601529190920151166060830152608082015260a00190565b6040516020818303038152906040526040518463ffffffff1660e01b8152600401612f2b939291906148c8565b5f604051808303815f87803b158015612f42575f80fd5b505af1925050508015612f53575060015b612fad578c5f805160206149bc833981519152604051612fa4906020808252601c908201527f52657075746174696f6e456e67696e652e7265636f72644576656e7400000000604082015260600190565b60405180910390a25b6040516001600160a01b0387811682528816908e907f0226d43a57dd1dcb35120172cf53c49eb99096869f2ad079e3feee20f7ec29409060200160405180910390a3866001600160a01b0316818e7f6be18adf8c1d38f954e8833a85f5ccdafe28d8064d995be24119f8a318fca39a60405160405180910390a450505050505050505050505050565b5f8160405160200161306d918152604060208201819052600b908201526a34b9b9bab2b22a37b5b2b760a91b606082015260800190565b604051602081830303815290604052805190602001209050919050565b80825d5050565b5f8160405160200161306d9181526040602082018190526006908201526534b9b9bab2b960d11b606082015260800190565b5f8160405160200161306d918152604060208201819052600e908201526d7072655377617042616c616e636560901b606082015260800190565b5f806001600160a01b0383166131166020870187613ed7565b6001600160a01b031614905080613139576131346020850185614930565b613148565b6131466020850185614930565b155b9150505b9392505050565b6008545f90600160a01b900461ffff16808203613173575f915050613475565b5f61318160208601356144b4565b6001600160801b031690505f61271061319a848461494b565b6131a49190614962565b9050805f036131b8575f9350505050613475565b5f6001600160a01b0386166131d060208a018a613ed7565b6001600160a01b03161490505f816131f4576131ef60208a018a613ed7565b613204565b61320460408a0160208b01613ed7565b604051630b0d9c0960e01b81526001600160a01b038083166004830152306024830152604482018690529192507f000000000000000000000000000000000000000000000000000000000000000090911690630b0d9c09906064015f604051808303815f87803b158015613276575f80fd5b505af1158015613288573d5f803e3d5ffd5b50839250506001600160a01b038216905061331a5760405163018c61d360e21b8152600481018c90527f00000000000000000000000000000000000000000000000000000000000000006001600160a01b031690630631874c9086906024015f604051808303818588803b1580156132fe575f80fd5b505af1158015613310573d5f803e3d5ffd5b5050505050613430565b60405163a9059cbb60e01b81526001600160a01b037f0000000000000000000000000000000000000000000000000000000000000000811660048301526024820186905282169063a9059cbb906044016020604051808303815f875af1158015613386573d5f803e3d5ffd5b505050506040513d601f19601f820116820180604052508101906133aa91906144db565b5060405163647d2fb760e01b8152600481018c90526001600160a01b038281166024830152604482018690527f0000000000000000000000000000000000000000000000000000000000000000169063647d2fb7906064015f604051808303815f87803b158015613419575f80fd5b505af115801561342b573d5f803e3d5ffd5b505050505b8a7fe20614e9524f904b3f09381dc1288ddc66fc9a9b99d21cbb7cf75094955f5e708560405161346291815260200190565b60405180910390a250505060801b925050505b949350505050565b5f806134c461349461102b36889003880188614410565b6001600160a01b037f000000000000000000000000000000000000000000000000000000000000000016906137fc565b509192505f91506134e290506134dd6020870187614981565b6138ae565b90505f6134f86134dd6040880160208901614981565b90506040860135851561351c5761351184848484613b66565b94505050505061314c565b61351184848484613c19565b5f805f7f00000000000000000000000000000000000000000000000000000000000000006001600160a01b031663af0ab33f6040518163ffffffff1660e01b815260040160c060405180830381865afa158015613587573d5f803e3d5ffd5b505050506040513d601f19601f820116820180604052508101906135ab919061437d565b9550505050925092508261ffff16845f015161ffff1611156135e05760405163ac99fced60e01b815260040160405180910390fd5b8061ffff168460a0015161ffff16111561360d5760405163ac99fced60e01b815260040160405180910390fd5b8161ffff16846020015161ffff16111561363a5760405163ac99fced60e01b815260040160405180910390fd5b5f6040518060e001604052808864ffffffffff1681526020018764ffffffffff168152602001865f015161ffff1681526020018660a0015161ffff168152602001866020015161ffff1681526020014264ffffffffff1681526020016001151581525090508060065f8b81526020019081526020015f205f820151815f015f6101000a81548164ffffffffff021916908364ffffffffff1602179055506020820151815f0160056101000a81548164ffffffffff021916908364ffffffffff1602179055506040820151815f01600a6101000a81548161ffff021916908361ffff1602179055506060820151815f01600c6101000a81548161ffff021916908361ffff1602179055506080820151815f01600e6101000a81548161ffff021916908361ffff16021790555060a0820151815f0160106101000a81548164ffffffffff021916908364ffffffffff16021790555060c0820151815f0160156101000a81548160ff021916908315150217905550905050876001600160a01b0316897f2a54d9f134eb1f7c461871adc4ec01e466cf5b3623bcccc552b07fa03fa6767b836040516137e9919061407c565b60405180910390a3505050505050505050565b5f805f805f61380a86613ca6565b604051631e2eaeaf60e01b8152600481018290529091505f906001600160a01b03891690631e2eaeaf90602401602060405180830381865afa158015613852573d5f803e3d5ffd5b505050506040513d601f19601f82011682018060405250810190613876919061452f565b90506001600160a01b03811695508060a01c60020b945062ffffff8160b81c16935062ffffff8160d01c169250505092959194509250565b60020b5f60ff82901d80830118620d89e88111156138d7576138d76345c3193d60e11b84613cc5565b7001fffcb933bd6fad37aa2d162d1a5940016001821602600160801b186002821615613913576ffff97272373d413259a46990580e213a0260801c5b6004821615613932576ffff2e50f5f656932ef12357cf3c7fdcc0260801c5b6008821615613951576fffe5caca7e10e4e61c3624eaa0941cd00260801c5b6010821615613970576fffcb9843d60f6159c9db58835c9266440260801c5b602082161561398f576fff973b41fa98c081472e6896dfb254c00260801c5b60408216156139ae576fff2ea16466c96a3843ec78b326b528610260801c5b60808216156139cd576ffe5dee046a99a2a811c461f1969c30530260801c5b6101008216156139ed576ffcbe86c7900a88aedcffc83b479aa3a40260801c5b610200821615613a0d576ff987a7253ac413176f2b074cf7815e540260801c5b610400821615613a2d576ff3392b0822b70005940c7a398e4b70f30260801c5b610800821615613a4d576fe7159475a2c29b7443b29c7fa6e889d90260801c5b611000821615613a6d576fd097f3bdfd2022b8845ad8f792aa58250260801c5b612000821615613a8d576fa9f746462d870fdf8a65dc1f90e061e50260801c5b614000821615613aad576f70d869a156d2a1b890bb3df62baf32f70260801c5b618000821615613acd576f31be135f97d08fd981231505542fcfa60260801c5b62010000821615613aee576f09aa508b5b7a84e1c677de54f3e99bc90260801c5b62020000821615613b0e576e5d6af8dedb81196699c329225ee6040260801c5b62040000821615613b2d576d2216e584f5fa1ea926041bedfe980260801c5b62080000821615613b4a576b048a170391f7dc42444e8fa20260801c5b5f841315613b56575f19045b63ffffffff0160201c9392505050565b5f826001600160a01b0316846001600160a01b03161115613b85579192915b826001600160a01b0316856001600160a01b031610613ba557505f613475565b5f846001600160a01b0316866001600160a01b031611613bc55784613bc7565b855b9050613c0f6001600160801b038416613c00600160601b613be8858961499c565b6001600160a01b0316886001600160a01b0316613cd4565b836001600160a01b0316613cd4565b9695505050505050565b5f826001600160a01b0316846001600160a01b03161115613c38579192915b836001600160a01b0316856001600160a01b031611613c5857505f613475565b5f836001600160a01b0316866001600160a01b031610613c785783613c7a565b855b9050613c0f6001600160801b038416613c93878461499c565b6001600160a01b0316600160601b613cd4565b6040515f9061306d908390600690602001918252602082015260400190565b815f528060020b60045260245ffd5b5f838302815f1985870982811083820303915050808411613cf3575f80fd5b805f03613d055750829004905061314c565b5f848688095f868103871696879004966002600389028118808a02820302808a02820302808a02820302808a02820302808a02820302808a02909103029181900381900460010186841190950394909402919094039290920491909117919091029150509392505050565b5f60208284031215613d80575f80fd5b5035919050565b6001600160a01b0381168114613d9b575f80fd5b50565b5f8060408385031215613daf575f80fd5b8235613dba81613d87565b946020939093013593505050565b64ffffffffff81168114613d9b575f80fd5b5f60208284031215613dea575f80fd5b813561314c81613dc8565b5f60a08284031215613e05575f80fd5b50919050565b5f60808284031215613e05575f80fd5b5f8083601f840112613e2b575f80fd5b50813567ffffffffffffffff811115613e42575f80fd5b602083019150836020828501011115613e59575f80fd5b9250929050565b5f805f805f6101608688031215613e75575f80fd5b8535613e8081613d87565b9450613e8f8760208801613df5565b9350613e9e8760c08801613e0b565b925061014086013567ffffffffffffffff811115613eba575f80fd5b613ec688828901613e1b565b969995985093965092949392505050565b5f60208284031215613ee7575f80fd5b813561314c81613d87565b5f60608284031215613e05575f80fd5b5f805f805f6101408688031215613f17575f80fd5b8535613f2281613d87565b9450613f318760208801613df5565b9350613f408760c08801613ef2565b925061012086013567ffffffffffffffff811115613eba575f80fd5b5f8060408385031215613f6d575f80fd5b823591506020830135613f7f81613d87565b809150509250929050565b5f805f805f805f6101a0888a031215613fa1575f80fd5b8735613fac81613d87565b9650613fbb8960208a01613df5565b9550613fca8960c08a01613e0b565b94506101408801359350610160880135925061018088013567ffffffffffffffff811115613ff6575f80fd5b6140028a828b01613e1b565b989b979a50959850939692959293505050565b8060020b8114613d9b575f80fd5b5f805f806101008587031215614037575f80fd5b843561404281613d87565b93506140518660208701613df5565b925060c085013561406181613d87565b915060e085013561407181614015565b939692955090935050565b5f60e08201905064ffffffffff835116825264ffffffffff602084015116602083015261ffff604084015116604083015261ffff606084015116606083015261ffff608084015116608083015260a08301516140e160a084018264ffffffffff169052565b5060c08301516140f560c084018215159052565b5092915050565b5f805f805f806101608789031215614112575f80fd5b863561411d81613d87565b955061412c8860208901613df5565b945061413b8860c08901613ef2565b9350610120870135925061014087013567ffffffffffffffff81111561415f575f80fd5b61416b89828a01613e1b565b979a9699509497509295939492505050565b5f805f805f806101208789031215614193575f80fd5b863561419e81613d87565b95506141ad8860208901613df5565b945060c0870135935060e0870135925061010087013567ffffffffffffffff81111561415f575f80fd5b8151151581526101c0810160208301516141f5602084018215159052565b506040830151614209604084018215159052565b50606083015161421d606084018215159052565b506080830151614231608084018215159052565b5060a083015161424560a084018215159052565b5060c083015161425960c084018215159052565b5060e083015161426d60e084018215159052565b5061010083015161428361010084018215159052565b5061012083015161429961012084018215159052565b506101408301516142af61014084018215159052565b506101608301516142c561016084018215159052565b506101808301516142db61018084018215159052565b506101a08301516140f56101a084018215159052565b5f805f60e08486031215614303575f80fd5b833561430e81613d87565b925061431d8560208601613df5565b915060c084013561432d81613d87565b809150509250925092565b634e487b7160e01b5f52601160045260245ffd5b69ffffffffffffffffffff8181168382160190811115611d7057611d70614338565b61ffff81168114613d9b575f80fd5b5f805f805f8060c08789031215614392575f80fd5b865161439d8161436e565b60208801519096506143ae8161436e565b60408801519095506143bf81613dc8565b60608801519094506143d08161436e565b60808801519093506143e181613dc8565b60a08801519092506143f28161436e565b809150509295509295509295565b62ffffff81168114613d9b575f80fd5b5f60a0828403128015614421575f80fd5b5060405160a0810167ffffffffffffffff8111828210171561445157634e487b7160e01b5f52604160045260245ffd5b604052823561445f81613d87565b8152602083013561446f81613d87565b6020820152604083013561448281614400565b6040820152606083013561449581614015565b606082015260808301356144a881613d87565b60808201529392505050565b5f600160ff1b82016144c8576144c8614338565b505f0390565b8015158114613d9b575f80fd5b5f602082840312156144eb575f80fd5b815161314c816144ce565b81810381811115611d7057611d70614338565b5f60208284031215614519575f80fd5b81516001600160801b038116811461314c575f80fd5b5f6020828403121561453f575f80fd5b5051919050565b80820180821115611d7057611d70614338565b5f60208284031215614569575f80fd5b815161314c8161436e565b80516001600160a01b03908116835260208083015182169084015260408083015162ffffff169084015260608083015160020b9084015260809182015116910152565b60c081016145c58285614574565b6001600160a01b039290921660a09190910152919050565b60e081016145eb8286614574565b6001600160801b039390931660a08201526001600160a01b039190911660c090910152919050565b5f60c08284031215614623575f80fd5b60405160c0810167ffffffffffffffff8111828210171561465257634e487b7160e01b5f52604160045260245ffd5b60405290508082356146638161436e565b815260208301356146738161436e565b6020820152604083013561468681613dc8565b604082015260608301356146998161436e565b606082015260808301356146ac81613dc8565b608082015260a08301356146bf8161436e565b60a0919091015292915050565b5f805f805f808688036101808112156146e3575f80fd5b87356146ee81613d87565b965060208801356146fe81613d87565b9550604088013561470e81613dc8565b9450606088013561471e81613dc8565b93506040607f1982011215614731575f80fd5b506040805190810167ffffffffffffffff8111828210171561476157634e487b7160e01b5f52604160045260245ffd5b60405260808801356147728161436e565b815260a08801356147828161436e565b602082015291506147968860c08901614613565b90509295509295509295565b80546001600160a01b0319166001600160a01b0392909216919091179055565b81356147cd81613d87565b6147d781836147a2565b506001810160208301356147ea81613d87565b6147f481836147a2565b50604083013561480381614400565b8154606085013561481381614015565b8060b81b62ffffff60b81b1662ffffff60a01b8460a01b1665ffffffffffff60a01b19841617178455505050505f608083013561484f81613d87565b80915061485f81600285016147a2565b50505050565b8681526001600160a01b03861660208201526001600160801b038516604082015264ffffffffff84811660608301528316608082015260e081016148bd60a0830184805161ffff908116835260209182015116910152565b979650505050505050565b6001600160a01b03841681525f600584106148f157634e487b7160e01b5f52602160045260245ffd5b8360208301526060604083015282518060608401528060208501608085015e5f608082850101526080601f19601f830116840101915050949350505050565b5f60208284031215614940575f80fd5b813561314c816144ce565b8082028115828204841417611d7057611d70614338565b5f8261497c57634e487b7160e01b5f52601260045260245ffd5b500490565b5f60208284031215614991575f80fd5b813561314c81614015565b6001600160a01b038281168282160390811115611d7057611d7061433856febaaad9ba06fe2971ad4659bbd1c251776da30649f34f1759d7b71b8a28fac61ea26469706673582212206b053179040a54e80657c640a7fd232ebb53afc7abdfac94278707b9e481b42864736f6c634300081a0033","linkReferences":{}},"methodIdentifiers":{"GOVERNANCE()":"14627834","addBaseToken(address,uint256)":"0aa67e7f","afterAddLiquidity(address,(address,address,uint24,int24,address),(int24,int24,int256,bytes32),int256,int256,bytes)":"9f063efc","afterDonate(address,(address,address,uint24,int24,address),uint256,uint256,bytes)":"e1b4af69","afterInitialize(address,(address,address,uint24,int24,address),uint160,int24)":"6fe7e6eb","afterRemoveLiquidity(address,(address,address,uint24,int24,address),(int24,int24,int256,bytes32),int256,int256,bytes)":"6c2bbe7e","afterSwap(address,(address,address,uint24,int24,address),(bool,int256,uint160),int256,bytes)":"b47b2fb1","allowedBaseTokens(address)":"4e618ee4","bastionRouter()":"a626a7a6","beforeAddLiquidity(address,(address,address,uint24,int24,address),(int24,int24,int256,bytes32),bytes)":"259982e5","beforeDonate(address,(address,address,uint24,int24,address),uint256,uint256,bytes)":"b6a8b0fa","beforeInitialize(address,(address,address,uint24,int24,address),uint160)":"dc98354e","beforeRemoveLiquidity(address,(address,address,uint24,int24,address),(int24,int24,int256,bytes32),bytes)":"21d0ee70","beforeSwap(address,(address,address,uint24,int24,address),(bool,int256,uint160),bytes)":"575e24b4","defaultLockDuration()":"0fd6699b","defaultVestingDuration()":"d80317b6","escrowVault()":"8a2ae60b","forceRemoveIssuerLP(bytes32)":"b7ac5a77","getHookPermissions()":"c4e833ce","getPoolCommitment(bytes32)":"854e8d5c","getPoolInfo(bytes32)":"09f2c019","getPoolIssuer(bytes32)":"6e3bed58","insurancePool()":"ab2adc00","isCommitmentStricterThanDefault(bytes32)":"0cddf456","isIssuer(bytes32,address)":"6023152e","maxPoolTVL()":"2600dc18","minBaseAmount(address)":"8398b039","minLockDuration()":"d6a298e9","minVestingDuration()":"74e555b6","poolManager()":"dc4c90d3","removeBaseToken(address)":"bbd1e122","reputationEngine()":"c3f677ef","setBastionRouter(address)":"425e0d44","setDefaultLockDuration(uint40)":"ac23186e","setDefaultVestingDuration(uint40)":"1a40bf93","setMaxPoolTVL(uint256)":"37877abd","setMinLockDuration(uint40)":"1fef0820","setMinVestingDuration(uint40)":"d420a4d5","syncFeeRate()":"5fa6ec49","transferGovernance(address)":"d38bfff4","triggerOracle()":"d1fe9536","updateMinBaseAmount(address,uint256)":"1b7d91de"},"storageLayout":{"storage":[{"astId":9535,"contract":"src/hooks/BastionHook.sol:BastionHook","label":"_issuers","offset":0,"slot":"0","type":"t_mapping(t_userDefinedValueType(PoolId)5797,t_address)"},{"astId":9541,"contract":"src/hooks/BastionHook.sol:BastionHook","label":"_escrowIds","offset":0,"slot":"1","type":"t_mapping(t_userDefinedValueType(PoolId)5797,t_uint256)"},{"astId":9547,"contract":"src/hooks/BastionHook.sol:BastionHook","label":"_totalLiquidity","offset":0,"slot":"2","type":"t_mapping(t_userDefinedValueType(PoolId)5797,t_uint256)"},{"astId":9553,"contract":"src/hooks/BastionHook.sol:BastionHook","label":"_issuedTokens","offset":0,"slot":"3","type":"t_mapping(t_userDefinedValueType(PoolId)5797,t_address)"},{"astId":9559,"contract":"src/hooks/BastionHook.sol:BastionHook","label":"_issuerLPOwner","offset":0,"slot":"4","type":"t_mapping(t_userDefinedValueType(PoolId)5797,t_address)"},{"astId":9566,"contract":"src/hooks/BastionHook.sol:BastionHook","label":"_poolKeys","offset":0,"slot":"5","type":"t_mapping(t_userDefinedValueType(PoolId)5797,t_struct(PoolKey)5843_storage)"},{"astId":9589,"contract":"src/hooks/BastionHook.sol:BastionHook","label":"_poolCommitments","offset":0,"slot":"6","type":"t_mapping(t_userDefinedValueType(PoolId)5797,t_struct(PoolCommitment)9582_storage)"},{"astId":9592,"contract":"src/hooks/BastionHook.sol:BastionHook","label":"bastionRouter","offset":0,"slot":"7","type":"t_address"},{"astId":9595,"contract":"src/hooks/BastionHook.sol:BastionHook","label":"_owner","offset":0,"slot":"8","type":"t_address"},{"astId":9598,"contract":"src/hooks/BastionHook.sol:BastionHook","label":"_cachedFeeRate","offset":20,"slot":"8","type":"t_uint16"},{"astId":9603,"contract":"src/hooks/BastionHook.sol:BastionHook","label":"allowedBaseTokens","offset":0,"slot":"9","type":"t_mapping(t_address,t_bool)"},{"astId":9608,"contract":"src/hooks/BastionHook.sol:BastionHook","label":"minBaseAmount","offset":0,"slot":"10","type":"t_mapping(t_address,t_uint256)"},{"astId":9610,"contract":"src/hooks/BastionHook.sol:BastionHook","label":"GOVERNANCE","offset":0,"slot":"11","type":"t_address"},{"astId":9613,"contract":"src/hooks/BastionHook.sol:BastionHook","label":"maxPoolTVL","offset":0,"slot":"12","type":"t_uint256"},{"astId":9616,"contract":"src/hooks/BastionHook.sol:BastionHook","label":"defaultLockDuration","offset":0,"slot":"13","type":"t_uint40"},{"astId":9619,"contract":"src/hooks/BastionHook.sol:BastionHook","label":"defaultVestingDuration","offset":5,"slot":"13","type":"t_uint40"},{"astId":9622,"contract":"src/hooks/BastionHook.sol:BastionHook","label":"minLockDuration","offset":10,"slot":"13","type":"t_uint40"},{"astId":9625,"contract":"src/hooks/BastionHook.sol:BastionHook","label":"minVestingDuration","offset":15,"slot":"13","type":"t_uint40"}],"types":{"t_address":{"encoding":"inplace","label":"address","numberOfBytes":"20"},"t_bool":{"encoding":"inplace","label":"bool","numberOfBytes":"1"},"t_contract(IHooks)1247":{"encoding":"inplace","label":"contract IHooks","numberOfBytes":"20"},"t_int24":{"encoding":"inplace","label":"int24","numberOfBytes":"3"},"t_mapping(t_address,t_bool)":{"encoding":"mapping","key":"t_address","label":"mapping(address => bool)","numberOfBytes":"32","value":"t_bool"},"t_mapping(t_address,t_uint256)":{"encoding":"mapping","key":"t_address","label":"mapping(address => uint256)","numberOfBytes":"32","value":"t_uint256"},"t_mapping(t_userDefinedValueType(PoolId)5797,t_address)":{"encoding":"mapping","key":"t_userDefinedValueType(PoolId)5797","label":"mapping(PoolId => address)","numberOfBytes":"32","value":"t_address"},"t_mapping(t_userDefinedValueType(PoolId)5797,t_struct(PoolCommitment)9582_storage)":{"encoding":"mapping","key":"t_userDefinedValueType(PoolId)5797","label":"mapping(PoolId => struct BastionHook.PoolCommitment)","numberOfBytes":"32","value":"t_struct(PoolCommitment)9582_storage"},"t_mapping(t_userDefinedValueType(PoolId)5797,t_struct(PoolKey)5843_storage)":{"encoding":"mapping","key":"t_userDefinedValueType(PoolId)5797","label":"mapping(PoolId => struct PoolKey)","numberOfBytes":"32","value":"t_struct(PoolKey)5843_storage"},"t_mapping(t_userDefinedValueType(PoolId)5797,t_uint256)":{"encoding":"mapping","key":"t_userDefinedValueType(PoolId)5797","label":"mapping(PoolId => uint256)","numberOfBytes":"32","value":"t_uint256"},"t_struct(PoolCommitment)9582_storage":{"encoding":"inplace","label":"struct BastionHook.PoolCommitment","numberOfBytes":"32","members":[{"astId":9569,"contract":"src/hooks/BastionHook.sol:BastionHook","label":"lockDuration","offset":0,"slot":"0","type":"t_uint40"},{"astId":9571,"contract":"src/hooks/BastionHook.sol:BastionHook","label":"vestingDuration","offset":5,"slot":"0","type":"t_uint40"},{"astId":9573,"contract":"src/hooks/BastionHook.sol:BastionHook","label":"maxSingleLpRemovalBps","offset":10,"slot":"0","type":"t_uint16"},{"astId":9575,"contract":"src/hooks/BastionHook.sol:BastionHook","label":"maxCumulativeLpRemovalBps","offset":12,"slot":"0","type":"t_uint16"},{"astId":9577,"contract":"src/hooks/BastionHook.sol:BastionHook","label":"maxDailySellBps","offset":14,"slot":"0","type":"t_uint16"},{"astId":9579,"contract":"src/hooks/BastionHook.sol:BastionHook","label":"createdAt","offset":16,"slot":"0","type":"t_uint40"},{"astId":9581,"contract":"src/hooks/BastionHook.sol:BastionHook","label":"isSet","offset":21,"slot":"0","type":"t_bool"}]},"t_struct(PoolKey)5843_storage":{"encoding":"inplace","label":"struct PoolKey","numberOfBytes":"96","members":[{"astId":5828,"contract":"src/hooks/BastionHook.sol:BastionHook","label":"currency0","offset":0,"slot":"0","type":"t_userDefinedValueType(Currency)5497"},{"astId":5832,"contract":"src/hooks/BastionHook.sol:BastionHook","label":"currency1","offset":0,"slot":"1","type":"t_userDefinedValueType(Currency)5497"},{"astId":5835,"contract":"src/hooks/BastionHook.sol:BastionHook","label":"fee","offset":20,"slot":"1","type":"t_uint24"},{"astId":5838,"contract":"src/hooks/BastionHook.sol:BastionHook","label":"tickSpacing","offset":23,"slot":"1","type":"t_int24"},{"astId":5842,"contract":"src/hooks/BastionHook.sol:BastionHook","label":"hooks","offset":0,"slot":"2","type":"t_contract(IHooks)1247"}]},"t_uint16":{"encoding":"inplace","label":"uint16","numberOfBytes":"2"},"t_uint24":{"encoding":"inplace","label":"uint24","numberOfBytes":"3"},"t_uint256":{"encoding":"inplace","label":"uint256","numberOfBytes":"32"},"t_uint40":{"encoding":"inplace","label":"uint40","numberOfBytes":"5"},"t_userDefinedValueType(Currency)5497":{"encoding":"inplace","label":"Currency","numberOfBytes":"20"},"t_userDefinedValueType(PoolId)5797":{"encoding":"inplace","label":"PoolId","numberOfBytes":"32"}}},"id":32}