{"abi":[{"type":"constructor","inputs":[{"name":"_poolManager","type":"address","internalType":"contract IPoolManager"},{"name":"_escrowVault","type":"address","internalType":"contract IEscrowVault"},{"name":"_insurancePool","type":"address","internalType":"contract InsurancePool"},{"name":"_triggerOracle","type":"address","internalType":"contract TriggerOracle"},{"name":"_reputationEngine","type":"address","internalType":"contract IReputationEngine"},{"name":"_governance","type":"address","internalType":"address"},{"name":"_weth","type":"address","internalType":"address"},{"name":"_usdc","type":"address","internalType":"address"}],"stateMutability":"nonpayable"},{"type":"receive","stateMutability":"payable"},{"type":"function","name":"GOVERNANCE","inputs":[],"outputs":[{"name":"","type":"address","internalType":"address"}],"stateMutability":"view"},{"type":"function","name":"addBaseToken","inputs":[{"name":"token","type":"address","internalType":"address"},{"name":"_minBaseAmount","type":"uint256","internalType":"uint256"}],"outputs":[],"stateMutability":"nonpayable"},{"type":"function","name":"afterAddLiquidity","inputs":[{"name":"","type":"address","internalType":"address"},{"name":"","type":"tuple","internalType":"struct PoolKey","components":[{"name":"currency0","type":"address","internalType":"Currency"},{"name":"currency1","type":"address","internalType":"Currency"},{"name":"fee","type":"uint24","internalType":"uint24"},{"name":"tickSpacing","type":"int24","internalType":"int24"},{"name":"hooks","type":"address","internalType":"contract IHooks"}]},{"name":"","type":"tuple","internalType":"struct ModifyLiquidityParams","components":[{"name":"tickLower","type":"int24","internalType":"int24"},{"name":"tickUpper","type":"int24","internalType":"int24"},{"name":"liquidityDelta","type":"int256","internalType":"int256"},{"name":"salt","type":"bytes32","internalType":"bytes32"}]},{"name":"","type":"int256","internalType":"BalanceDelta"},{"name":"","type":"int256","internalType":"BalanceDelta"},{"name":"","type":"bytes","internalType":"bytes"}],"outputs":[{"name":"","type":"bytes4","internalType":"bytes4"},{"name":"","type":"int256","internalType":"BalanceDelta"}],"stateMutability":"nonpayable"},{"type":"function","name":"afterDonate","inputs":[{"name":"","type":"address","internalType":"address"},{"name":"","type":"tuple","internalType":"struct PoolKey","components":[{"name":"currency0","type":"address","internalType":"Currency"},{"name":"currency1","type":"address","internalType":"Currency"},{"name":"fee","type":"uint24","internalType":"uint24"},{"name":"tickSpacing","type":"int24","internalType":"int24"},{"name":"hooks","type":"address","internalType":"contract IHooks"}]},{"name":"","type":"uint256","internalType":"uint256"},{"name":"","type":"uint256","internalType":"uint256"},{"name":"","type":"bytes","internalType":"bytes"}],"outputs":[{"name":"","type":"bytes4","internalType":"bytes4"}],"stateMutability":"nonpayable"},{"type":"function","name":"afterInitialize","inputs":[{"name":"","type":"address","internalType":"address"},{"name":"","type":"tuple","internalType":"struct PoolKey","components":[{"name":"currency0","type":"address","internalType":"Currency"},{"name":"currency1","type":"address","internalType":"Currency"},{"name":"fee","type":"uint24","internalType":"uint24"},{"name":"tickSpacing","type":"int24","internalType":"int24"},{"name":"hooks","type":"address","internalType":"contract IHooks"}]},{"name":"","type":"uint160","internalType":"uint160"},{"name":"","type":"int24","internalType":"int24"}],"outputs":[{"name":"","type":"bytes4","internalType":"bytes4"}],"stateMutability":"nonpayable"},{"type":"function","name":"afterRemoveLiquidity","inputs":[{"name":"","type":"address","internalType":"address"},{"name":"","type":"tuple","internalType":"struct PoolKey","components":[{"name":"currency0","type":"address","internalType":"Currency"},{"name":"currency1","type":"address","internalType":"Currency"},{"name":"fee","type":"uint24","internalType":"uint24"},{"name":"tickSpacing","type":"int24","internalType":"int24"},{"name":"hooks","type":"address","internalType":"contract IHooks"}]},{"name":"","type":"tuple","internalType":"struct ModifyLiquidityParams","components":[{"name":"tickLower","type":"int24","internalType":"int24"},{"name":"tickUpper","type":"int24","internalType":"int24"},{"name":"liquidityDelta","type":"int256","internalType":"int256"},{"name":"salt","type":"bytes32","internalType":"bytes32"}]},{"name":"","type":"int256","internalType":"BalanceDelta"},{"name":"","type":"int256","internalType":"BalanceDelta"},{"name":"","type":"bytes","internalType":"bytes"}],"outputs":[{"name":"","type":"bytes4","internalType":"bytes4"},{"name":"","type":"int256","internalType":"BalanceDelta"}],"stateMutability":"nonpayable"},{"type":"function","name":"afterSwap","inputs":[{"name":"","type":"address","internalType":"address"},{"name":"key","type":"tuple","internalType":"struct PoolKey","components":[{"name":"currency0","type":"address","internalType":"Currency"},{"name":"currency1","type":"address","internalType":"Currency"},{"name":"fee","type":"uint24","internalType":"uint24"},{"name":"tickSpacing","type":"int24","internalType":"int24"},{"name":"hooks","type":"address","internalType":"contract IHooks"}]},{"name":"params","type":"tuple","internalType":"struct SwapParams","components":[{"name":"zeroForOne","type":"bool","internalType":"bool"},{"name":"amountSpecified","type":"int256","internalType":"int256"},{"name":"sqrtPriceLimitX96","type":"uint160","internalType":"uint160"}]},{"name":"delta","type":"int256","internalType":"BalanceDelta"},{"name":"","type":"bytes","internalType":"bytes"}],"outputs":[{"name":"","type":"bytes4","internalType":"bytes4"},{"name":"","type":"int128","internalType":"int128"}],"stateMutability":"nonpayable"},{"type":"function","name":"allowedBaseTokens","inputs":[{"name":"","type":"address","internalType":"address"}],"outputs":[{"name":"","type":"bool","internalType":"bool"}],"stateMutability":"view"},{"type":"function","name":"bastionRouter","inputs":[],"outputs":[{"name":"","type":"address","internalType":"address"}],"stateMutability":"view"},{"type":"function","name":"beforeAddLiquidity","inputs":[{"name":"sender","type":"address","internalType":"address"},{"name":"key","type":"tuple","internalType":"struct PoolKey","components":[{"name":"currency0","type":"address","internalType":"Currency"},{"name":"currency1","type":"address","internalType":"Currency"},{"name":"fee","type":"uint24","internalType":"uint24"},{"name":"tickSpacing","type":"int24","internalType":"int24"},{"name":"hooks","type":"address","internalType":"contract IHooks"}]},{"name":"params","type":"tuple","internalType":"struct ModifyLiquidityParams","components":[{"name":"tickLower","type":"int24","internalType":"int24"},{"name":"tickUpper","type":"int24","internalType":"int24"},{"name":"liquidityDelta","type":"int256","internalType":"int256"},{"name":"salt","type":"bytes32","internalType":"bytes32"}]},{"name":"hookData","type":"bytes","internalType":"bytes"}],"outputs":[{"name":"","type":"bytes4","internalType":"bytes4"}],"stateMutability":"nonpayable"},{"type":"function","name":"beforeDonate","inputs":[{"name":"","type":"address","internalType":"address"},{"name":"","type":"tuple","internalType":"struct PoolKey","components":[{"name":"currency0","type":"address","internalType":"Currency"},{"name":"currency1","type":"address","internalType":"Currency"},{"name":"fee","type":"uint24","internalType":"uint24"},{"name":"tickSpacing","type":"int24","internalType":"int24"},{"name":"hooks","type":"address","internalType":"contract IHooks"}]},{"name":"","type":"uint256","internalType":"uint256"},{"name":"","type":"uint256","internalType":"uint256"},{"name":"","type":"bytes","internalType":"bytes"}],"outputs":[{"name":"","type":"bytes4","internalType":"bytes4"}],"stateMutability":"nonpayable"},{"type":"function","name":"beforeInitialize","inputs":[{"name":"","type":"address","internalType":"address"},{"name":"","type":"tuple","internalType":"struct PoolKey","components":[{"name":"currency0","type":"address","internalType":"Currency"},{"name":"currency1","type":"address","internalType":"Currency"},{"name":"fee","type":"uint24","internalType":"uint24"},{"name":"tickSpacing","type":"int24","internalType":"int24"},{"name":"hooks","type":"address","internalType":"contract IHooks"}]},{"name":"","type":"uint160","internalType":"uint160"}],"outputs":[{"name":"","type":"bytes4","internalType":"bytes4"}],"stateMutability":"nonpayable"},{"type":"function","name":"beforeRemoveLiquidity","inputs":[{"name":"sender","type":"address","internalType":"address"},{"name":"key","type":"tuple","internalType":"struct PoolKey","components":[{"name":"currency0","type":"address","internalType":"Currency"},{"name":"currency1","type":"address","internalType":"Currency"},{"name":"fee","type":"uint24","internalType":"uint24"},{"name":"tickSpacing","type":"int24","internalType":"int24"},{"name":"hooks","type":"address","internalType":"contract IHooks"}]},{"name":"params","type":"tuple","internalType":"struct ModifyLiquidityParams","components":[{"name":"tickLower","type":"int24","internalType":"int24"},{"name":"tickUpper","type":"int24","internalType":"int24"},{"name":"liquidityDelta","type":"int256","internalType":"int256"},{"name":"salt","type":"bytes32","internalType":"bytes32"}]},{"name":"hookData","type":"bytes","internalType":"bytes"}],"outputs":[{"name":"","type":"bytes4","internalType":"bytes4"}],"stateMutability":"nonpayable"},{"type":"function","name":"beforeSwap","inputs":[{"name":"sender","type":"address","internalType":"address"},{"name":"key","type":"tuple","internalType":"struct PoolKey","components":[{"name":"currency0","type":"address","internalType":"Currency"},{"name":"currency1","type":"address","internalType":"Currency"},{"name":"fee","type":"uint24","internalType":"uint24"},{"name":"tickSpacing","type":"int24","internalType":"int24"},{"name":"hooks","type":"address","internalType":"contract IHooks"}]},{"name":"params","type":"tuple","internalType":"struct SwapParams","components":[{"name":"zeroForOne","type":"bool","internalType":"bool"},{"name":"amountSpecified","type":"int256","internalType":"int256"},{"name":"sqrtPriceLimitX96","type":"uint160","internalType":"uint160"}]},{"name":"hookData","type":"bytes","internalType":"bytes"}],"outputs":[{"name":"","type":"bytes4","internalType":"bytes4"},{"name":"","type":"int256","internalType":"BeforeSwapDelta"},{"name":"","type":"uint24","internalType":"uint24"}],"stateMutability":"nonpayable"},{"type":"function","name":"defaultLockDuration","inputs":[],"outputs":[{"name":"","type":"uint40","internalType":"uint40"}],"stateMutability":"view"},{"type":"function","name":"defaultVestingDuration","inputs":[],"outputs":[{"name":"","type":"uint40","internalType":"uint40"}],"stateMutability":"view"},{"type":"function","name":"escrowVault","inputs":[],"outputs":[{"name":"","type":"address","internalType":"contract IEscrowVault"}],"stateMutability":"view"},{"type":"function","name":"executeTrigger","inputs":[{"name":"poolId","type":"bytes32","internalType":"PoolId"}],"outputs":[],"stateMutability":"nonpayable"},{"type":"function","name":"forceRemoveIssuerLP","inputs":[{"name":"poolId","type":"bytes32","internalType":"PoolId"}],"outputs":[],"stateMutability":"nonpayable"},{"type":"function","name":"getHookPermissions","inputs":[],"outputs":[{"name":"","type":"tuple","internalType":"struct Hooks.Permissions","components":[{"name":"beforeInitialize","type":"bool","internalType":"bool"},{"name":"afterInitialize","type":"bool","internalType":"bool"},{"name":"beforeAddLiquidity","type":"bool","internalType":"bool"},{"name":"afterAddLiquidity","type":"bool","internalType":"bool"},{"name":"beforeRemoveLiquidity","type":"bool","internalType":"bool"},{"name":"afterRemoveLiquidity","type":"bool","internalType":"bool"},{"name":"beforeSwap","type":"bool","internalType":"bool"},{"name":"afterSwap","type":"bool","internalType":"bool"},{"name":"beforeDonate","type":"bool","internalType":"bool"},{"name":"afterDonate","type":"bool","internalType":"bool"},{"name":"beforeSwapReturnDelta","type":"bool","internalType":"bool"},{"name":"afterSwapReturnDelta","type":"bool","internalType":"bool"},{"name":"afterAddLiquidityReturnDelta","type":"bool","internalType":"bool"},{"name":"afterRemoveLiquidityReturnDelta","type":"bool","internalType":"bool"}]}],"stateMutability":"pure"},{"type":"function","name":"getInitialTotalSupply","inputs":[{"name":"poolId","type":"bytes32","internalType":"PoolId"}],"outputs":[{"name":"","type":"uint256","internalType":"uint256"}],"stateMutability":"view"},{"type":"function","name":"getLpRatioBps","inputs":[{"name":"poolId","type":"bytes32","internalType":"PoolId"}],"outputs":[{"name":"","type":"uint256","internalType":"uint256"}],"stateMutability":"view"},{"type":"function","name":"getPoolCommitment","inputs":[{"name":"poolId","type":"bytes32","internalType":"PoolId"}],"outputs":[{"name":"","type":"tuple","internalType":"struct BastionHook.PoolCommitment","components":[{"name":"lockDuration","type":"uint40","internalType":"uint40"},{"name":"vestingDuration","type":"uint40","internalType":"uint40"},{"name":"maxSingleLpRemovalBps","type":"uint16","internalType":"uint16"},{"name":"maxCumulativeLpRemovalBps","type":"uint16","internalType":"uint16"},{"name":"maxDailySellBps","type":"uint16","internalType":"uint16"},{"name":"weeklyDumpWindowSeconds","type":"uint40","internalType":"uint40"},{"name":"weeklyDumpThresholdBps","type":"uint16","internalType":"uint16"},{"name":"createdAt","type":"uint40","internalType":"uint40"},{"name":"isSet","type":"bool","internalType":"bool"}]}],"stateMutability":"view"},{"type":"function","name":"getPoolInfo","inputs":[{"name":"poolId","type":"bytes32","internalType":"PoolId"}],"outputs":[{"name":"issuer","type":"address","internalType":"address"},{"name":"escrowId","type":"uint256","internalType":"uint256"},{"name":"issuedToken","type":"address","internalType":"address"},{"name":"totalLiquidity","type":"uint256","internalType":"uint256"}],"stateMutability":"view"},{"type":"function","name":"getPoolIssuer","inputs":[{"name":"poolId","type":"bytes32","internalType":"PoolId"}],"outputs":[{"name":"","type":"address","internalType":"address"}],"stateMutability":"view"},{"type":"function","name":"insurancePool","inputs":[],"outputs":[{"name":"","type":"address","internalType":"contract InsurancePool"}],"stateMutability":"view"},{"type":"function","name":"isCommitmentStricterThanDefault","inputs":[{"name":"poolId","type":"bytes32","internalType":"PoolId"}],"outputs":[{"name":"","type":"bool","internalType":"bool"}],"stateMutability":"view"},{"type":"function","name":"isIssuer","inputs":[{"name":"poolId","type":"bytes32","internalType":"PoolId"},{"name":"account","type":"address","internalType":"address"}],"outputs":[{"name":"","type":"bool","internalType":"bool"}],"stateMutability":"view"},{"type":"function","name":"isLPRemovalTriggerable","inputs":[{"name":"poolId","type":"bytes32","internalType":"PoolId"}],"outputs":[{"name":"","type":"bool","internalType":"bool"}],"stateMutability":"view"},{"type":"function","name":"isPoolTriggered","inputs":[{"name":"poolId","type":"bytes32","internalType":"PoolId"}],"outputs":[{"name":"","type":"bool","internalType":"bool"}],"stateMutability":"view"},{"type":"function","name":"maxPoolTVL","inputs":[],"outputs":[{"name":"","type":"uint256","internalType":"uint256"}],"stateMutability":"view"},{"type":"function","name":"minBaseAmount","inputs":[{"name":"","type":"address","internalType":"address"}],"outputs":[{"name":"","type":"uint256","internalType":"uint256"}],"stateMutability":"view"},{"type":"function","name":"minLockDuration","inputs":[],"outputs":[{"name":"","type":"uint40","internalType":"uint40"}],"stateMutability":"view"},{"type":"function","name":"minVestingDuration","inputs":[],"outputs":[{"name":"","type":"uint40","internalType":"uint40"}],"stateMutability":"view"},{"type":"function","name":"poolManager","inputs":[],"outputs":[{"name":"","type":"address","internalType":"contract IPoolManager"}],"stateMutability":"view"},{"type":"function","name":"removeBaseToken","inputs":[{"name":"token","type":"address","internalType":"address"}],"outputs":[],"stateMutability":"nonpayable"},{"type":"function","name":"reputationEngine","inputs":[],"outputs":[{"name":"","type":"address","internalType":"contract IReputationEngine"}],"stateMutability":"view"},{"type":"function","name":"setBastionRouter","inputs":[{"name":"router","type":"address","internalType":"address"}],"outputs":[],"stateMutability":"nonpayable"},{"type":"function","name":"setDefaultLockDuration","inputs":[{"name":"newDuration","type":"uint40","internalType":"uint40"}],"outputs":[],"stateMutability":"nonpayable"},{"type":"function","name":"setDefaultVestingDuration","inputs":[{"name":"newDuration","type":"uint40","internalType":"uint40"}],"outputs":[],"stateMutability":"nonpayable"},{"type":"function","name":"setMaxPoolTVL","inputs":[{"name":"newMaxTVL","type":"uint256","internalType":"uint256"}],"outputs":[],"stateMutability":"nonpayable"},{"type":"function","name":"setMinLockDuration","inputs":[{"name":"newDuration","type":"uint40","internalType":"uint40"}],"outputs":[],"stateMutability":"nonpayable"},{"type":"function","name":"setMinVestingDuration","inputs":[{"name":"newDuration","type":"uint40","internalType":"uint40"}],"outputs":[],"stateMutability":"nonpayable"},{"type":"function","name":"syncFeeRate","inputs":[],"outputs":[],"stateMutability":"nonpayable"},{"type":"function","name":"transferGovernance","inputs":[{"name":"newGovernance","type":"address","internalType":"address"}],"outputs":[],"stateMutability":"nonpayable"},{"type":"function","name":"triggerOracle","inputs":[],"outputs":[{"name":"","type":"address","internalType":"contract TriggerOracle"}],"stateMutability":"view"},{"type":"function","name":"updateMinBaseAmount","inputs":[{"name":"token","type":"address","internalType":"address"},{"name":"_minBaseAmount","type":"uint256","internalType":"uint256"}],"outputs":[],"stateMutability":"nonpayable"},{"type":"event","name":"BaseTokenAdded","inputs":[{"name":"token","type":"address","indexed":true,"internalType":"address"},{"name":"minAmount","type":"uint256","indexed":false,"internalType":"uint256"}],"anonymous":false},{"type":"event","name":"BaseTokenRemoved","inputs":[{"name":"token","type":"address","indexed":true,"internalType":"address"}],"anonymous":false},{"type":"event","name":"BastionRouterSet","inputs":[{"name":"router","type":"address","indexed":true,"internalType":"address"}],"anonymous":false},{"type":"event","name":"DefaultLockDurationUpdated","inputs":[{"name":"newDuration","type":"uint256","indexed":false,"internalType":"uint256"}],"anonymous":false},{"type":"event","name":"DefaultVestingDurationUpdated","inputs":[{"name":"newDuration","type":"uint256","indexed":false,"internalType":"uint256"}],"anonymous":false},{"type":"event","name":"EscrowCreated","inputs":[{"name":"poolId","type":"bytes32","indexed":true,"internalType":"PoolId"},{"name":"escrowId","type":"uint256","indexed":true,"internalType":"uint256"},{"name":"issuer","type":"address","indexed":true,"internalType":"address"}],"anonymous":false},{"type":"event","name":"ExternalCallFailed","inputs":[{"name":"target","type":"string","indexed":false,"internalType":"string"},{"name":"poolId","type":"bytes32","indexed":true,"internalType":"PoolId"}],"anonymous":false},{"type":"event","name":"ForceRemovalExecuted","inputs":[{"name":"poolId","type":"bytes32","indexed":true,"internalType":"PoolId"},{"name":"ethAmount","type":"uint256","indexed":false,"internalType":"uint256"},{"name":"token","type":"address","indexed":false,"internalType":"address"},{"name":"tokenAmount","type":"uint256","indexed":false,"internalType":"uint256"}],"anonymous":false},{"type":"event","name":"GovernanceTransferred","inputs":[{"name":"oldGov","type":"address","indexed":true,"internalType":"address"},{"name":"newGov","type":"address","indexed":true,"internalType":"address"}],"anonymous":false},{"type":"event","name":"InsuranceFeeDeposited","inputs":[{"name":"poolId","type":"bytes32","indexed":true,"internalType":"PoolId"},{"name":"amount","type":"uint256","indexed":false,"internalType":"uint256"}],"anonymous":false},{"type":"event","name":"IssuerRegistered","inputs":[{"name":"poolId","type":"bytes32","indexed":true,"internalType":"PoolId"},{"name":"issuer","type":"address","indexed":true,"internalType":"address"},{"name":"issuedToken","type":"address","indexed":false,"internalType":"address"}],"anonymous":false},{"type":"event","name":"IssuerSaleReported","inputs":[{"name":"poolId","type":"bytes32","indexed":true,"internalType":"PoolId"},{"name":"issuer","type":"address","indexed":true,"internalType":"address"},{"name":"amount","type":"uint256","indexed":false,"internalType":"uint256"}],"anonymous":false},{"type":"event","name":"LPRemovalReported","inputs":[{"name":"poolId","type":"bytes32","indexed":true,"internalType":"PoolId"},{"name":"amount","type":"uint256","indexed":false,"internalType":"uint256"},{"name":"totalLP","type":"uint256","indexed":false,"internalType":"uint256"}],"anonymous":false},{"type":"event","name":"MaxPoolTVLUpdated","inputs":[{"name":"newMaxTVL","type":"uint256","indexed":false,"internalType":"uint256"}],"anonymous":false},{"type":"event","name":"MinBaseAmountUpdated","inputs":[{"name":"token","type":"address","indexed":true,"internalType":"address"},{"name":"newMinAmount","type":"uint256","indexed":false,"internalType":"uint256"}],"anonymous":false},{"type":"event","name":"MinLockDurationUpdated","inputs":[{"name":"newDuration","type":"uint256","indexed":false,"internalType":"uint256"}],"anonymous":false},{"type":"event","name":"MinVestingDurationUpdated","inputs":[{"name":"newDuration","type":"uint256","indexed":false,"internalType":"uint256"}],"anonymous":false},{"type":"event","name":"PoolCommitmentSet","inputs":[{"name":"poolId","type":"bytes32","indexed":true,"internalType":"PoolId"},{"name":"issuer","type":"address","indexed":true,"internalType":"address"},{"name":"commitment","type":"tuple","indexed":false,"internalType":"struct BastionHook.PoolCommitment","components":[{"name":"lockDuration","type":"uint40","internalType":"uint40"},{"name":"vestingDuration","type":"uint40","internalType":"uint40"},{"name":"maxSingleLpRemovalBps","type":"uint16","internalType":"uint16"},{"name":"maxCumulativeLpRemovalBps","type":"uint16","internalType":"uint16"},{"name":"maxDailySellBps","type":"uint16","internalType":"uint16"},{"name":"weeklyDumpWindowSeconds","type":"uint40","internalType":"uint40"},{"name":"weeklyDumpThresholdBps","type":"uint16","internalType":"uint16"},{"name":"createdAt","type":"uint40","internalType":"uint40"},{"name":"isSet","type":"bool","internalType":"bool"}]}],"anonymous":false},{"type":"event","name":"PoolLiquidityRatio","inputs":[{"name":"poolId","type":"bytes32","indexed":true,"internalType":"PoolId"},{"name":"lpRatioBps","type":"uint256","indexed":false,"internalType":"uint256"}],"anonymous":false},{"type":"error","name":"BaseTokenAlreadySet","inputs":[{"name":"token","type":"address","internalType":"address"}]},{"type":"error","name":"BaseTokenNotSet","inputs":[{"name":"token","type":"address","internalType":"address"}]},{"type":"error","name":"BelowMinBaseAmount","inputs":[{"name":"provided","type":"uint256","internalType":"uint256"},{"name":"required","type":"uint256","internalType":"uint256"}]},{"type":"error","name":"CommitmentTooLenient","inputs":[]},{"type":"error","name":"CumulativeLPRemovalExceeded","inputs":[]},{"type":"error","name":"EscrowTriggered","inputs":[]},{"type":"error","name":"ExceedsMaxTVL","inputs":[]},{"type":"error","name":"ExceedsVestedAmount","inputs":[{"name":"requested","type":"uint128","internalType":"uint128"},{"name":"removable","type":"uint128","internalType":"uint128"}]},{"type":"error","name":"HookNotImplemented","inputs":[]},{"type":"error","name":"InvalidDuration","inputs":[]},{"type":"error","name":"InvalidHookData","inputs":[]},{"type":"error","name":"IssuerDailySellExceeded","inputs":[]},{"type":"error","name":"IssuerDumpDetected","inputs":[]},{"type":"error","name":"IssuerWeeklySellExceeded","inputs":[]},{"type":"error","name":"LockDurationTooShort","inputs":[]},{"type":"error","name":"MustIdentifyUser","inputs":[]},{"type":"error","name":"NoAllowedBaseToken","inputs":[]},{"type":"error","name":"OnlyEscrowVault","inputs":[]},{"type":"error","name":"OnlyGovernance","inputs":[]},{"type":"error","name":"OnlyOwner","inputs":[]},{"type":"error","name":"OnlyPoolManager","inputs":[]},{"type":"error","name":"PoolTriggered","inputs":[]},{"type":"error","name":"RouterAlreadySet","inputs":[]},{"type":"error","name":"RouterNotSet","inputs":[]},{"type":"error","name":"SingleLPRemovalExceeded","inputs":[]},{"type":"error","name":"ValueOutOfRange","inputs":[]},{"type":"error","name":"VestingDurationTooShort","inputs":[]},{"type":"error","name":"ZeroAddress","inputs":[]}],"bytecode":{"object":"0x610120604052348015610010575f80fd5b50604051615e06380380615e0683398101604081905261002f9161015d565b6001600160a01b0397881660805295871660a05293861660c05291851660e052841661010052601580549185166001600160a01b0319928316811790915560128054831690911790555f60168190556017805471093a800000093a8000006d6c800000093a809316929092179091557f8fa6efc3be94b5b348b21fea823fe8d100408cee9b7f90524494500445d8ff6c805460ff199081166001908117909255670de0b6b3a76400007f4f26c3876aa9f4b92579780beea1161a61f87ebf1ec6ee865b299e447ecba99c819055938616835260136020818152604080862080548516861790556014808352818720979097559690971684528652848320805490911690911790559252902063773594009055610208565b6001600160a01b038116811461015a575f80fd5b50565b5f805f805f805f80610100898b031215610175575f80fd5b885161018081610146565b60208a015190985061019181610146565b60408a01519097506101a281610146565b60608a01519096506101b381610146565b60808a01519095506101c481610146565b60a08a01519094506101d581610146565b60c08a01519093506101e681610146565b60e08a01519092506101f781610146565b809150509295985092959890939650565b60805160a05160c05160e05161010051615ae16103255f395f818161098a015281816117f2015261371201525f8181610ac001528181610dd3015281816116db01528181611a400152818161200a015281816121e00152818161319c0152818161416f0152818161466b01526146d701525f818161089e0152818161261201528181612d5601528181612e2701528181612ea4015281816135bf01528181613ce101528181613d4e0152613da001525f818161084c015281816112720152818161145b01528181611539015281816115ac01528181611d1301528181612aae015261365d01525f8181610b790152818161113e01528181611b9e015281816122fd015281816127c701528181613c6101526140e20152615ae15ff3fe608060405260043610610283575f3560e01c806374e555b611610155578063bbd1e122116100be578063d6a298e911610078578063d6a298e914610b20578063d80317b614610b44578063dc4c90d314610b68578063dc98354e14610b9b578063e1b4af6914610921578063e81e177814610bb5575f80fd5b8063bbd1e1221461095a578063c3f677ef14610979578063c4e833ce146109ac578063d1fe953614610aaf578063d38bfff414610ae2578063d420a4d514610b01575f80fd5b8063a626a7a61161010f578063a626a7a61461086e578063ab2adc001461088d578063ac23186e146108c0578063b47b2fb1146108df578063b6a8b0fa14610921578063b7ac5a771461093b575f80fd5b806374e555b6146106a55780638398b039146106c9578063854e8d5c146106f457806385e98c261461080d5780638a2ae60b1461083b5780639f063efc146105e8575f80fd5b8063261bb6ee116101f75780635fa6ec49116101b15780635fa6ec49146105b55780636023152e146105c95780636c2bbe7e146105e85780636e3bed58146106275780636f3381941461065b5780636fe7e6eb14610686575f80fd5b8063261bb6ee146104b557806337877abd146104e057806338bddcd7146104ff578063425e0d441461051e5780634e618ee41461053d578063575e24b41461056b575f80fd5b80631a40bf93116102485780631a40bf93146103de5780631b7d91de146103fd5780631fef08201461041c57806321d0ee701461043b578063259982e5146104735780632600dc1814610492575f80fd5b806309f2c0191461028e5780630aa67e7f146103245780630cddf456146103455780630fd6699b1461037457806314627834146103a7575f80fd5b3661028a57005b5f80fd5b348015610299575f80fd5b506102e66102a8366004614c84565b5f908152602081815260408083205460018352818420546003845282852054600290945291909320546001600160a01b039384169491939092169190565b60405161031b94939291906001600160a01b039485168152602081019390935292166040820152606081019190915260800190565b60405180910390f35b34801561032f575f80fd5b5061034361033e366004614cb2565b610bd4565b005b348015610350575f80fd5b5061036461035f366004614c84565b610cad565b604051901515815260200161031b565b34801561037f575f80fd5b506017546103919064ffffffffff1681565b60405164ffffffffff909116815260200161031b565b3480156103b2575f80fd5b506015546103c6906001600160a01b031681565b6040516001600160a01b03909116815260200161031b565b3480156103e9575f80fd5b506103436103f8366004614cfe565b610eee565b348015610408575f80fd5b50610343610417366004614cb2565b610fb8565b348015610427575f80fd5b50610343610436366004614cfe565b611072565b348015610446575f80fd5b5061045a610455366004614d84565b611132565b6040516001600160e01b0319909116815260200161031b565b34801561047e575f80fd5b5061045a61048d366004614d84565b611b92565b34801561049d575f80fd5b506104a760165481565b60405190815260200161031b565b3480156104c0575f80fd5b506104a76104cf366004614c84565b5f9081526007602052604090205490565b3480156104eb575f80fd5b506103436104fa366004614c84565b611e2c565b34801561050a575f80fd5b50610343610519366004614c84565b611eb6565b348015610529575f80fd5b50610343610538366004614dfb565b612251565b348015610548575f80fd5b50610364610557366004614dfb565b60136020525f908152604090205460ff1681565b348015610576575f80fd5b5061058a610585366004614e26565b6122ef565b604080516001600160e01b03199094168452602084019290925262ffffff169082015260600161031b565b3480156105c0575f80fd5b50610343612610565b3480156105d4575f80fd5b506103646105e3366004614e80565b6126ae565b3480156105f3575f80fd5b50610607610602366004614eae565b6126d1565b604080516001600160e01b0319909316835260208301919091520161031b565b348015610632575f80fd5b506103c6610641366004614c84565b5f908152602081905260409020546001600160a01b031690565b348015610666575f80fd5b506104a7610675366004614c84565b5f908152600d602052604090205490565b348015610691575f80fd5b5061045a6106a0366004614f47565b6126ec565b3480156106b0575f80fd5b5060175461039190600160781b900464ffffffffff1681565b3480156106d4575f80fd5b506104a76106e3366004614dfb565b60146020525f908152604090205481565b3480156106ff575f80fd5b5061080061070e366004614c84565b60408051610120810182525f80825260208201819052918101829052606081018290526080810182905260a0810182905260c0810182905260e08101829052610100810191909152505f90815260066020908152604091829020825161012081018452905464ffffffffff8082168352600160281b8204811693830193909352600160501b810461ffff90811694830194909452600160601b810484166060830152600160701b810484166080830152600160801b8104831660a0830152600160a81b810490931660c0820152600160b81b830490911660e0820152600160e01b90910460ff16151561010082015290565b60405161031b9190614fa0565b348015610818575f80fd5b50610364610827366004614c84565b5f908152600c602052604090205460ff1690565b348015610846575f80fd5b506103c67f000000000000000000000000000000000000000000000000000000000000000081565b348015610879575f80fd5b506011546103c6906001600160a01b031681565b348015610898575f80fd5b506103c67f000000000000000000000000000000000000000000000000000000000000000081565b3480156108cb575f80fd5b506103436108da366004614cfe565b612706565b3480156108ea575f80fd5b506108fe6108f936600461506a565b6127ba565b604080516001600160e01b03199093168352600f9190910b60208301520161031b565b34801561092c575f80fd5b5061045a6106a03660046150eb565b348015610946575f80fd5b50610343610955366004614c84565b612aa3565b348015610965575f80fd5b50610343610974366004614dfb565b612f54565b348015610984575f80fd5b506103c67f000000000000000000000000000000000000000000000000000000000000000081565b3480156109b7575f80fd5b50610aa2604080516101c0810182525f80825260208201819052918101829052606081018290526080810182905260a0810182905260c0810182905260e08101829052610100810182905261012081018290526101408101829052610160810182905261018081018290526101a081019190915250604080516101c0810182525f808252602082018190526001928201839052606082018190526080820183905260a0820181905260c0820183905260e0820183905261010082018190526101208201819052610140820192909252610160810182905261018081018290526101a081019190915290565b60405161031b9190615145565b348015610aba575f80fd5b506103c67f000000000000000000000000000000000000000000000000000000000000000081565b348015610aed575f80fd5b50610343610afc366004614dfb565b613017565b348015610b0c575f80fd5b50610343610b1b366004614cfe565b6130ba565b348015610b2b575f80fd5b5060175461039190600160501b900464ffffffffff1681565b348015610b4f575f80fd5b5060175461039190600160281b900464ffffffffff1681565b348015610b73575f80fd5b506103c67f000000000000000000000000000000000000000000000000000000000000000081565b348015610ba6575f80fd5b5061045a6106a036600461525f565b348015610bc0575f80fd5b50610364610bcf366004614c84565b61317a565b6015546001600160a01b03163314610bff576040516354348f0360e01b815260040160405180910390fd5b6001600160a01b0382165f9081526013602052604090205460ff1615610c485760405163ab90e08f60e01b81526001600160a01b03831660048201526024015b60405180910390fd5b6001600160a01b0382165f818152601360209081526040808320805460ff19166001179055601482529182902084905590518381527f4e1e19819b9bfe79faf800def389d460793f6ae7f24841974445c76cc338f0ad91015b60405180910390a25050565b5f818152600660209081526040808320815161012081018352905464ffffffffff8082168352600160281b820481169483019490945261ffff600160501b8204811693830193909352600160601b810483166060830152600160701b810483166080830152600160801b8104841660a0830152600160a81b810490921660c0820152600160b81b820490921660e083015260ff600160e01b9091041615156101008201819052610d5f57505f92915050565b5f816020015164ffffffffff16825f015164ffffffffff16610d8191906152ba565b6017549091505f90610da39064ffffffffff600160281b8204811691166152ba565b90508069ffffffffffffffffffff168269ffffffffffffffffffff161115610dd057506001949350505050565b5f7f00000000000000000000000000000000000000000000000000000000000000006001600160a01b031663d1fa08ca6040518163ffffffff1660e01b815260040161010060405180830381865afa158015610e2e573d5f803e3d5ffd5b505050506040513d601f19601f82011682018060405250810190610e529190615337565b9050805f015161ffff16846040015161ffff161015610e775750600195945050505050565b8060a0015161ffff16846060015161ffff161015610e9b5750600195945050505050565b806020015161ffff16846080015161ffff161015610ebf5750600195945050505050565b8060e0015161ffff168460c0015161ffff161015610ee35750600195945050505050565b505f95945050505050565b6015546001600160a01b03163314610f19576040516354348f0360e01b815260040160405180910390fd5b62093a808164ffffffffff161080610f3b57506301e133808164ffffffffff16115b15610f5957604051637616640160e01b815260040160405180910390fd5b6017805469ffffffffff00000000001916600160281b64ffffffffff8416908102919091179091556040519081527f413575c62ffbf7629bd9be434c05ec22f05e00ea14a0e607bd2643c53a1141c2906020015b60405180910390a150565b6015546001600160a01b03163314610fe3576040516354348f0360e01b815260040160405180910390fd5b6001600160a01b0382165f9081526013602052604090205460ff1661102657604051632c512b5360e21b81526001600160a01b0383166004820152602401610c3f565b6001600160a01b0382165f8181526014602052604090819020839055517f1bead881fbea2dddd72d07b3d94938b8c712c88205c2d54ea6b0d305b1c78d5b90610ca19084815260200190565b6015546001600160a01b0316331461109d576040516354348f0360e01b815260040160405180910390fd5b620151808164ffffffffff1610806110be575062278d008164ffffffffff16115b156110dc57604051637616640160e01b815260040160405180910390fd5b6017805464ffffffffff60501b1916600160501b64ffffffffff8416908102919091179091556040519081527fed864a35f32fe4475ebf4b720c14da91bfa90be90a23af5dc7ee8381f4346e5d90602001610fad565b5f336001600160a01b037f0000000000000000000000000000000000000000000000000000000000000000161461117c5760405163f655705d60e01b815260040160405180910390fd5b5f61119661118f368890038801886153ed565b60a0902090565b5f818152602081905260409020549091506001600160a01b0316806111c7575063021d0ee760e41b9150611b899050565b5f808760400135126111d9575f6111f0565b6111e66040880135615491565b6001600160801b03165b9050805f03611318575f838152600460205260409020546001600160a01b038a8116911614801561122057508415155b15611305575f61123286880188614dfb565b9050826001600160a01b0316816001600160a01b031603611303575f848152600160205260409081902054905163111d7f7160e11b8152600481018290527f00000000000000000000000000000000000000000000000000000000000000006001600160a01b03169063223afee290602401602060405180830381865afa1580156112bf573d5f803e3d5ffd5b505050506040513d601f19601f820116820180604052508101906112e391906154b8565b15611301576040516314e6fd6b60e01b815260040160405180910390fd5b505b505b5063021d0ee760e41b9250611b89915050565b7feb616091e4a683ec052a1308eb950224bcc4f473589e1377a2cfb7fb14cd8cbe5c600103611396575f838152600260205260409020548082116113735761136082826154d3565b5f85815260026020526040902055611382565b5f848152600260205260408120555b5063021d0ee760e41b9350611b8992505050565b5f838152600460205260408120546001600160a01b03908116908b16036118dd575f8690036113d8576040516370a05bf960e11b815260040160405180910390fd5b5f6113e587890189614dfb565b9050836001600160a01b0316816001600160a01b0316036118db575f858152600c602052604090205460ff161561142f57604051630a5a5aa560e11b815260040160405180910390fd5b5f85815260016020819052604080832054905163352e4fb760e21b8152600481018290529194509185917f00000000000000000000000000000000000000000000000000000000000000006001600160a01b03169063d4b93edc90602401602060405180830381865afa1580156114a8573d5f803e3d5ffd5b505050506040513d601f19601f820116820180604052508101906114cc91906154e6565b9050806001600160801b0316826001600160801b031611156115145760405163eed750a360e01b81526001600160801b03808416600483015282166024820152604401610c3f565b60405163f9357fdd60e01b8152600481018490526001600160801b03831660248201527f00000000000000000000000000000000000000000000000000000000000000006001600160a01b03169063f9357fdd906044015f604051808303815f87803b158015611582575f80fd5b505af1158015611594573d5f803e3d5ffd5b5050604051633f9952c760e01b8152600481018b90527f00000000000000000000000000000000000000000000000000000000000000006001600160a01b03169250633f9952c79150602401602060405180830381865afa1580156115fb573d5f803e3d5ffd5b505050506040513d601f19601f8201168201806040525081019061161f91906154b8565b156118d7575f888152600660209081526040808320815161012081018352905464ffffffffff8082168352600160281b8204811694830194909452600160501b810461ffff90811683850152600160601b820481166060840152600160701b820481166080840152600160801b8204851660a0840152600160a81b82041660c0830152600160b81b810490931660e0820152600160e01b90920460ff1615156101008084019190915281516368fd046560e11b815291519293927f00000000000000000000000000000000000000000000000000000000000000006001600160a01b03169263d1fa08ca9260048083019391928290030181865afa158015611729573d5f803e3d5ffd5b505050506040513d601f19601f8201168201806040525081019061174d9190615337565b825160208085015160808087015160c0808901516017548887015160e0808b01516040805164ffffffffff9c8d169b81019b909b52988b168a8a015261ffff96871660608b01529386169689019690965288821660a0890152600160281b909104909716918601919091529481169184019190915290921661010080830191909152825180830390910181526101208201928390526306ebc78160e31b9092529192507f00000000000000000000000000000000000000000000000000000000000000006001600160a01b03169163375e3c0891611833918d9160029161012401615520565b5f604051808303815f87803b15801561184a575f80fd5b505af192505050801561185b575060015b6118d457897fbaaad9ba06fe2971ad4659bbd1c251776da30649f34f1759d7b71b8a28fac61e6040516118cb9060208082526023908201527f52657075746174696f6e456e67696e652e434f4d4d49544d454e545f484f4e4f60408201526214915160ea1b606082015260800190565b60405180910390a25b50505b5050505b505b5f8481526002602052604090205480831161190f576118fc83826154d3565b5f8681526002602052604090205561191e565b5f858152600260205260408120555b8115611b3e575f85815260066020908152604091829020825161012081018452905464ffffffffff8082168352600160281b8204811693830193909352600160501b810461ffff90811694830194909452600160601b810484166060830152600160701b810484166080830152600160801b8104831660a0830152600160a81b810490931660c0820152600160b81b830490911660e0820152600160e01b90910460ff16158015610100830152611b3c575f868152601060205260409020548015611a28575f816119f18761271061557c565b6119fb9190615593565b9050826040015161ffff16811115611a26576040516321e9d84f60e11b815260040160405180910390fd5b505b6040516324cf129b60e21b8152600481018890525f907f00000000000000000000000000000000000000000000000000000000000000006001600160a01b03169063933c4a6c9060240161010060405180830381865afa158015611a8e573d5f803e3d5ffd5b505050506040513d601f19601f82011682018060405250810190611ab29190615337565b9050611abe88826132b8565b5f888152600e602052604081208054889290611adb9084906155b2565b90915550508115611b39575f888152600e60205260408120548390611b029061271061557c565b611b0c9190615593565b9050836060015161ffff16811115611b3757604051630516939160e11b815260040160405180910390fd5b505b50505b505b604080518481526020810183905286917f57b901fe48f94392a235006cdd68f5a7b044e910de2ce3ed557f35ec4c02e1e5910160405180910390a25063021d0ee760e41b9450505050505b95945050505050565b5f336001600160a01b037f00000000000000000000000000000000000000000000000000000000000000001614611bdc5760405163f655705d60e01b815260040160405180910390fd5b5f611bef61118f368890038801886153ed565b90505f80866040013513611c03575f611c09565b85604001355b5f838152602081905260409020549091506001600160a01b0316158015611c2f57508315155b15611c73575f611c3f8888613335565b90508060ff16600203611c5f575063259982e560e01b9250611b89915050565b611c6d83898b858a8a613453565b50611d76565b5f816001600160801b0316118015611ca357505f828152600460205260409020546001600160a01b038981169116145b15611d76578315611d76575f611cbb85870187614dfb565b5f848152602081905260409020549091506001600160a01b0390811690821603611d74575f8381526001602052604090819020549051630de5208b60e01b8152600481018290526001600160801b03841660248201527f00000000000000000000000000000000000000000000000000000000000000006001600160a01b031690630de5208b906044015f604051808303815f87803b158015611d5c575f80fd5b505af1158015611d6e573d5f803e3d5ffd5b50505050505b505b5f816001600160801b0316118015611d8f57505f601654115b15611ddd575f82815260026020526040812054611db6906001600160801b038416906155b2565b9050601654811115611ddb5760405163a84b0dcd60e01b815260040160405180910390fd5b505b6001600160801b03811615611e18575f82815260026020526040812080546001600160801b0384169290611e129084906155b2565b90915550505b5063259982e560e01b979650505050505050565b6015546001600160a01b03163314611e57576040516354348f0360e01b815260040160405180910390fd5b683635c9adc5dea00000811115611e8157604051634eb4f9fb60e01b815260040160405180910390fd5b60168190556040518181527fe419ee5e9ae59460a7379dd86980aba758a43ddcb4a020f191c8286a486e27cd90602001610fad565b5f81815260066020908152604091829020825161012081018452905464ffffffffff8082168352600160281b8204811693830193909352600160501b810461ffff90811694830194909452600160601b810484166060830152600160701b810484166080830152600160801b8104831660a0830152600160a81b810490931660c0820152600160b81b830490911660e0820152600160e01b90910460ff1615156101008201819052611fa05760405162461bcd60e51b8152602060048201526013602482015272141bdbdb081b9bdd081c9959da5cdd195c9959606a1b6044820152606401610c3f565b5f828152600c602052604090205460ff1615611ff25760405162461bcd60e51b8152602060048201526011602482015270105b1c9958591e481d1c9a59d9d95c9959607a1b6044820152606401610c3f565b6040516324cf129b60e21b8152600481018390525f907f00000000000000000000000000000000000000000000000000000000000000006001600160a01b03169063933c4a6c9060240161010060405180830381865afa158015612058573d5f803e3d5ffd5b505050506040513d601f19601f8201168201806040525081019061207c9190615337565b905061208883826132b8565b5f83815260106020526040902054806120da5760405162461bcd60e51b81526020600482015260146024820152734e6f20696e697469616c206c697175696469747960601b6044820152606401610c3f565b5f848152600e602052604081205482906120f69061271061557c565b6121009190615593565b90508260a0015161ffff1681101561214e5760405162461bcd60e51b8152602060048201526011602482015270151a1c995cda1bdb19081b9bdd081b595d607a1b6044820152606401610c3f565b5f858152600c60209081526040808320805460ff1916600190811790915560058352818420825160a08101845281546001600160a01b039081168252828401548082168388015262ffffff600160a01b82041683870152600160b81b9004600290810b606084015290920154821660808201528a8652600790945293829020549151630adee6a160e31b8152929391927f0000000000000000000000000000000000000000000000000000000000000000909216916356f735089161221b918b9187918790600401615608565b5f604051808303815f87803b158015612232575f80fd5b505af1158015612244573d5f803e3d5ffd5b5050505050505050505050565b6012546001600160a01b0316331461227c57604051635fc483c560e01b815260040160405180910390fd5b6011546001600160a01b0316156122a657604051630548895f60e51b815260040160405180910390fd5b601180546001600160a01b0319166001600160a01b0383169081179091556040517f95e0c74ad74bed58e740140619a493de50eb1fa88cac7152be3d4d8c2ed33a97905f90a250565b5f8080336001600160a01b037f0000000000000000000000000000000000000000000000000000000000000000161461233b5760405163f655705d60e01b815260040160405180910390fd5b5f61234e61118f368a90038a018a6153ed565b5f81815260036020908152604080832054838352908320549394506001600160a01b03908116931691908814612384578b612390565b612390888a018a614dfb565b90506123ad61239e856138e2565b846001600160a01b0316613936565b6123c86123b98561393d565b836001600160a01b0316613936565b6123e36123d48561396f565b826001600160a01b0316613936565b6001600160a01b0383161580159061240357506001600160a01b03821615155b15612592575f6001600160a01b03841661242060208e018e614dfb565b6001600160a01b03161490505f816124455761243f60208d018d61563f565b15612452565b61245260208d018d61563f565b90508080156124725750836001600160a01b0316836001600160a01b0316145b1561258f575f868152600c602052604090205460ff16156124a657604051630a5a5aa560e11b815260040160405180910390fd5b5f86815260066020908152604091829020825161012081018452905464ffffffffff8082168352600160281b8204811693830193909352600160501b810461ffff90811694830194909452600160601b810484166060830152600160701b810484166080830152600160801b8104831660a0830152600160a81b810490931660c0820152600160b81b830490911660e0820152600160e01b90910460ff1615801561010083015261258d575f808e6020013512612567578d6020013561257e565b61257460208f0135615491565b6001600160801b03165b905061258b8883836139a8565b505b505b50505b6001600160a01b038316158015906125ad57505f8a60200135125b156125f0575f6125be8c8c86613b2b565b905080156125ee575f6125d3868e8e88613b81565b6315d7892d60e21b995097505f965061260595505050505050565b505b506315d7892d60e21b95505f94508493505050505b955095509592505050565b7f00000000000000000000000000000000000000000000000000000000000000006001600160a01b031663978bbdb96040518163ffffffff1660e01b8152600401602060405180830381865afa15801561266c573d5f803e3d5ffd5b505050506040513d601f19601f82011682018060405250810190612690919061565a565b601260146101000a81548161ffff021916908361ffff160217905550565b5f828152602081905260409020546001600160a01b038281169116145b92915050565b5f80604051630a85dc2960e01b815260040160405180910390fd5b5f604051630a85dc2960e01b815260040160405180910390fd5b6015546001600160a01b03163314612731576040516354348f0360e01b815260040160405180910390fd5b620151808164ffffffffff16108061275257506276a7008164ffffffffff16115b1561277057604051637616640160e01b815260040160405180910390fd5b6017805464ffffffffff191664ffffffffff83169081179091556040519081527f92f84f6918c0b7e46df75bbb58184668fff4ba2ca47499f870aea28ca1e302a690602001610fad565b5f80336001600160a01b037f000000000000000000000000000000000000000000000000000000000000000016146128055760405163f655705d60e01b815260040160405180910390fd5b5f61281861118f368a90038a018a6153ed565b90505f61282b612827836138e2565b5c90565b90506001600160a01b03811615612a8b575f6128496128278461393d565b90505f6128586128278561396f565b90506001600160a01b038216158015906128835750816001600160a01b0316816001600160a01b0316145b15612a88575f6001600160a01b0384166128a060208e018e614dfb565b6001600160a01b03161490505f816128c5576128bf60208d018d61563f565b156128d2565b6128d260208d018d61563f565b90508015612a85575f826128ef576128ea8c600f0b90565b6128f9565b6128f98c60801d90565b90505f81600f0b1215612a83575f61291082615675565b6001600160801b031690505f876001600160a01b03166318160ddd6040518163ffffffff1660e01b8152600401602060405180830381865afa158015612958573d5f803e3d5ffd5b505050506040513d601f19601f8201168201806040525081019061297c91906156a2565b90508015612a80575f89815260066020908152604091829020825161012081018452905464ffffffffff8082168352600160281b8204811693830193909352600160501b810461ffff90811694830194909452600160601b810484166060830152600160701b810484166080830152600160801b8104831660a0830152600160a81b810490931660c0820152600160b81b830490911660e0820152600160e01b90910460ff16158015610100830152612a3a57612a3a8a8285613e45565b876001600160a01b03168a7f6c0d7f1a79eeacd063e6cb8417d9703397b2bdb85fb51a82c57d41c62a1f7db185604051612a7691815260200190565b60405180910390a3505b50505b505b50505b50505b5063b47b2fb160e01b995f9950975050505050505050565b336001600160a01b037f00000000000000000000000000000000000000000000000000000000000000001614612aec576040516326c7939d60e11b815260040160405180910390fd5b6011546001600160a01b0316612b155760405163179ce99f60e01b815260040160405180910390fd5b5f818152600c60209081526040808320805460ff1916600190811790915560058352818420825160a08101845281546001600160a01b039081168252928201548084168287015262ffffff600160a01b82041682860152600160b81b9004600290810b60608301529182015490921660808301528585529092528220549091819003612ba057505050565b612bcb7feb616091e4a683ec052a1308eb950224bcc4f473589e1377a2cfb7fb14cd8cbe6001613936565b6011546040516320a5240560e11b81526001600160a01b039091169063414a480a90612bfd90859030906004016156b9565b5f604051808303815f87803b158015612c14575f80fd5b505af1158015612c26573d5f803e3d5ffd5b5050601154604051636f61a7cd60e11b81526001600160a01b03909116925063dec34f9a9150612c5e908590859030906004016156df565b5f604051808303815f87803b158015612c75575f80fd5b505af1158015612c87573d5f803e3d5ffd5b50505050612cb57feb616091e4a683ec052a1308eb950224bcc4f473589e1377a2cfb7fb14cd8cbe5f613936565b5f83815260026020908152604080832083905560039091528120546001600160a01b03169047908215612d7b576040516370a0823160e01b81523060048201526001600160a01b038416906370a0823190602401602060405180830381865afa158015612d24573d5f803e3d5ffd5b505050506040513d601f19601f82011682018060405250810190612d4891906156a2565b90508015612d7b57612d7b837f000000000000000000000000000000000000000000000000000000000000000083614044565b84515f9081906001600160a01b03808716911603612d9f5786602001519150612da4565b865191505b6001600160a01b03821615612e4c576040516370a0823160e01b81523060048201526001600160a01b038316906370a0823190602401602060405180830381865afa158015612df5573d5f803e3d5ffd5b505050506040513d601f19601f82011682018060405250810190612e1991906156a2565b90508015612e4c57612e4c827f000000000000000000000000000000000000000000000000000000000000000083614044565b5f841180612e5957505f83115b80612e6357505f81115b15612eff57604051634550441760e01b8152600481018990526001600160a01b038681166024830152604482018590528381166064830152608482018390527f00000000000000000000000000000000000000000000000000000000000000001690634550441790869060a4015f604051808303818588803b158015612ee7575f80fd5b505af1158015612ef9573d5f803e3d5ffd5b50505050505b604080518581526001600160a01b038716602082015290810184905288907fde211aaa83d820c9f47fc01803017f9737c534def416fd42f3b7da647d7f73a39060600160405180910390a25050505050505050565b6015546001600160a01b03163314612f7f576040516354348f0360e01b815260040160405180910390fd5b6001600160a01b0381165f9081526013602052604090205460ff16612fc257604051632c512b5360e21b81526001600160a01b0382166004820152602401610c3f565b6001600160a01b0381165f818152601360209081526040808320805460ff191690556014909152808220829055517fdc23a849435922f20a9732eb85192a9d0c1cb34725ebe6d7de0be10212ba02fb9190a250565b6015546001600160a01b03163314613042576040516354348f0360e01b815260040160405180910390fd5b6001600160a01b0381166130695760405163d92e233d60e01b815260040160405180910390fd5b601580546001600160a01b038381166001600160a01b0319831681179093556040519116919082907f5f56bee8cffbe9a78652a74a60705edede02af10b0bbb888ca44b79a0d42ce80905f90a35050565b6015546001600160a01b031633146130e5576040516354348f0360e01b815260040160405180910390fd5b620151808164ffffffffff161080613106575062278d008164ffffffffff16115b1561312457604051637616640160e01b815260040160405180910390fd5b6017805464ffffffffff60781b1916600160781b64ffffffffff8416908102919091179091556040519081527f11a44ba9e7a3b98652f203fb9adffb784470ec7149edc0eb4e8e078e268ec40890602001610fad565b6040516324cf129b60e21b8152600481018290525f9081906001600160a01b037f0000000000000000000000000000000000000000000000000000000000000000169063933c4a6c9060240161010060405180830381865afa1580156131e2573d5f803e3d5ffd5b505050506040513d601f19601f820116820180604052508101906132069190615337565b5f848152600e6020908152604080832054600f909252909120546080830151929350909164ffffffffff9182169116158015906132585750608083015161324d9082615715565b64ffffffffff164210155b1561326757505f949350505050565b5f858152601060205260408120549081900361328857505f95945050505050565b5f816132968561271061557c565b6132a09190615593565b60a09095015161ffff16909410159695505050505050565b5f816080015164ffffffffff161180156132fc575060808101515f838152600f60205260409020546132f1919064ffffffffff16615715565b64ffffffffff164210155b15613331575f828152600e60209081526040808320839055600f9091529020805464ffffffffff19164264ffffffffff161790555b5050565b5f806133446020850185614dfb565b90505f6133576040860160208701614dfb565b6001600160a01b038084165f9081526013602052604080822054928416825290205491925060ff90811691168115801561338f575080155b156133ad57604051630d95dd8f60e31b815260040160405180910390fd5b8180156133b75750805b156133c95760029450505050506126cb565b5f826133d557836133d7565b845b90505f6133e58989866140c1565b6001600160a01b0383165f90815260146020526040902054909150811015613444576001600160a01b0382165f908152601460205260409081902054905163f1044b6b60e01b8152610c3f918391600401918252602082015260400190565b50600198975050505050505050565b5f8080808080613465878901896157e2565b601754959b5093995091975095509350915064ffffffffff600160501b909104811690851610156134a9576040516349eeb0b360e01b815260040160405180910390fd5b60175464ffffffffff600160781b909104811690841610156134de57604051630550e05f60e21b815260040160405180910390fd5b6134eb8c8786868561416c565b855f808e81526020019081526020015f205f6101000a8154816001600160a01b0302191690836001600160a01b031602179055508460035f8e81526020019081526020015f205f6101000a8154816001600160a01b0302191690836001600160a01b031602179055508960045f8e81526020019081526020015f205f6101000a8154816001600160a01b0302191690836001600160a01b031602179055508a60055f8e81526020019081526020015f2081816135a791906158d8565b5050601254600160a01b900461ffff165f0361365a577f00000000000000000000000000000000000000000000000000000000000000006001600160a01b031663978bbdb96040518163ffffffff1660e01b8152600401602060405180830381865afa158015613619573d5f803e3d5ffd5b505050506040513d601f19601f8201168201806040525081019061363d919061565a565b601260146101000a81548161ffff021916908361ffff1602179055505b5f7f00000000000000000000000000000000000000000000000000000000000000006001600160a01b031663b4e332f98e898d8989896040518763ffffffff1660e01b81526004016136b196959493929190615975565b6020604051808303815f875af11580156136cd573d5f803e3d5ffd5b505050506040513d601f19601f820116820180604052508101906136f191906156a2565b5f8e815260016020526040902081905590506137108d878c8a866144da565b7f00000000000000000000000000000000000000000000000000000000000000006001600160a01b031663375e3c08886004898e6001600160801b0316888760405160200161379794939291906001600160a01b03949094168452602080850193909352815161ffff90811660408601529190920151166060830152608082015260a00190565b6040516020818303038152906040526040518463ffffffff1660e01b81526004016137c493929190615520565b5f604051808303815f87803b1580156137db575f80fd5b505af19250505080156137ec575060015b613859578c7fbaaad9ba06fe2971ad4659bbd1c251776da30649f34f1759d7b71b8a28fac61e604051613850906020808252601c908201527f52657075746174696f6e456e67696e652e7265636f72644576656e7400000000604082015260600190565b60405180910390a25b6040516001600160a01b0387811682528816908e907f0226d43a57dd1dcb35120172cf53c49eb99096869f2ad079e3feee20f7ec29409060200160405180910390a3866001600160a01b0316818e7f6be18adf8c1d38f954e8833a85f5ccdafe28d8064d995be24119f8a318fca39a60405160405180910390a450505050505050505050505050565b5f81604051602001613919918152604060208201819052600b908201526a34b9b9bab2b22a37b5b2b760a91b606082015260800190565b604051602081830303815290604052805190602001209050919050565b80825d5050565b5f816040516020016139199181526040602082018190526006908201526534b9b9bab2b960d11b606082015260800190565b5f81604051602001613919918152604060208201819052600d908201526c30b1ba3ab0b629bbb0b83832b960991b606082015260800190565b5f83815260076020526040812054908190036139c45750505050565b608083015161ffff1615613a66575f84815260086020908152604080832054600a9092529091205464ffffffffff16613a008162015180615715565b64ffffffffff164210613a11575f91505b5f613a1c85846155b2565b90505f84613a2c8361271061557c565b613a369190615593565b9050866080015161ffff16811115613a6157604051630d029a9760e41b815260040160405180910390fd5b505050505b5f8360c0015161ffff16118015613a8757505f8360a0015164ffffffffff16115b15613b25575f84815260096020908152604080832054600b9092529091205460a085015164ffffffffff90911690613abf9082615715565b64ffffffffff164210613ad0575f91505b5f613adb85846155b2565b90505f84613aeb8361271061557c565b613af59190615593565b90508660c0015161ffff16811115613b20576040516361515b9d60e01b815260040160405180910390fd5b505050505b50505050565b5f806001600160a01b038316613b446020870187614dfb565b6001600160a01b031614905080613b6757613b62602085018561563f565b613b76565b613b74602085018561563f565b155b9150505b9392505050565b6012545f90600160a01b900461ffff16808203613ba1575f915050613e3d565b5f613baf6020860135615491565b6001600160801b031690505f612710613bc8848461557c565b613bd29190615593565b9050805f03613be6575f9350505050613e3d565b5f6001600160a01b038616613bfe60208a018a614dfb565b6001600160a01b03161490505f81613c2257613c1d60208a018a614dfb565b613c32565b613c3260408a0160208b01614dfb565b604051630b0d9c0960e01b81526001600160a01b038083166004830152306024830152604482018690529192507f000000000000000000000000000000000000000000000000000000000000000090911690630b0d9c09906064015f604051808303815f87803b158015613ca4575f80fd5b505af1158015613cb6573d5f803e3d5ffd5b50839250506001600160a01b0382169050613d485760405163018c61d360e21b8152600481018c90527f00000000000000000000000000000000000000000000000000000000000000006001600160a01b031690630631874c9086906024015f604051808303818588803b158015613d2c575f80fd5b505af1158015613d3e573d5f803e3d5ffd5b5050505050613df8565b613d73817f000000000000000000000000000000000000000000000000000000000000000086614044565b60405163647d2fb760e01b8152600481018c90526001600160a01b038281166024830152604482018690527f0000000000000000000000000000000000000000000000000000000000000000169063647d2fb7906064015f604051808303815f87803b158015613de1575f80fd5b505af1158015613df3573d5f803e3d5ffd5b505050505b8a7fe20614e9524f904b3f09381dc1288ddc66fc9a9b99d21cbb7cf75094955f5e7085604051613e2a91815260200190565b60405180910390a250505060801b925050505b949350505050565b5f8381526007602052604081205490819003613e615750505050565b5f848152600a602052604090205464ffffffffff16613e838162015180615715565b64ffffffffff164210613ec0575f858152600860209081526040808320839055600a9091529020805464ffffffffff19164264ffffffffff161790555b5f858152600b602052604090205460a085015164ffffffffff918216911615801590613f01575060a0850151613ef69082615715565b64ffffffffff164210155b15613f36575f868152600960209081526040808320839055600b9091529020805464ffffffffff19164264ffffffffff161790555b5f8681526008602052604081208054869290613f539084906155b2565b90915550505f8681526009602052604081208054869290613f759084906155b2565b9091555050608085015161ffff1615613fdb575f868152600860205260408120548490613fa49061271061557c565b613fae9190615593565b9050856080015161ffff16811115613fd95760405163025a902360e11b815260040160405180910390fd5b505b60c085015161ffff161561403c575f8681526009602052604081205484906140059061271061557c565b61400f9190615593565b90508560c0015161ffff1681111561403a5760405163025a902360e11b815260040160405180910390fd5b505b505050505050565b5f60405163a9059cbb60e01b81526001600160a01b038416600482015282602482015260205f6044835f895af13d15601f3d1160015f511416171691505080613b255760405162461bcd60e51b815260206004820152600f60248201526e1514905394d1915497d19052531151608a1b6044820152606401610c3f565b5f806141086140d861118f368890038801886153ed565b6001600160a01b037f00000000000000000000000000000000000000000000000000000000000000001690614710565b509192505f9150614126905061412160208701876159d8565b6147c2565b90505f61413c61412160408801602089016159d8565b9050604086013585156141605761415584848484614a7a565b945050505050613b7a565b61415584848484614b2d565b5f7f00000000000000000000000000000000000000000000000000000000000000006001600160a01b031663d1fa08ca6040518163ffffffff1660e01b815260040161010060405180830381865afa1580156141ca573d5f803e3d5ffd5b505050506040513d601f19601f820116820180604052508101906141ee9190615337565b8051835191925061ffff9081169116111561421c5760405163ac99fced60e01b815260040160405180910390fd5b8060a0015161ffff168260a0015161ffff16111561424d5760405163ac99fced60e01b815260040160405180910390fd5b806020015161ffff16826020015161ffff16111561427e5760405163ac99fced60e01b815260040160405180910390fd5b8060e0015161ffff168260e0015161ffff1611156142af5760405163ac99fced60e01b815260040160405180910390fd5b5f6040518061012001604052808664ffffffffff1681526020018564ffffffffff168152602001845f015161ffff1681526020018460a0015161ffff168152602001846020015161ffff1681526020018460c0015164ffffffffff1681526020018460e0015161ffff1681526020014264ffffffffff1681526020016001151581525090508060065f8981526020019081526020015f205f820151815f015f6101000a81548164ffffffffff021916908364ffffffffff1602179055506020820151815f0160056101000a81548164ffffffffff021916908364ffffffffff1602179055506040820151815f01600a6101000a81548161ffff021916908361ffff1602179055506060820151815f01600c6101000a81548161ffff021916908361ffff1602179055506080820151815f01600e6101000a81548161ffff021916908361ffff16021790555060a0820151815f0160106101000a81548164ffffffffff021916908364ffffffffff16021790555060c0820151815f0160156101000a81548161ffff021916908361ffff16021790555060e0820151815f0160176101000a81548164ffffffffff021916908364ffffffffff160217905550610100820151815f01601c6101000a81548160ff021916908315150217905550905050856001600160a01b0316877f391345c60ce1f8563e1d3762dd1608d3e3f2aa4403b602cb122f61a62a407a74836040516144c99190614fa0565b60405180910390a350505050505050565b5f846001600160a01b03166318160ddd6040518163ffffffff1660e01b8152600401602060405180830381865afa158015614517573d5f803e3d5ffd5b505050506040513d601f19601f8201168201806040525081019061453b91906156a2565b5f878152600760209081526040808320849055601090915281206001600160801b03871690819055919250901580159061457457505f82115b61457e575f61459e565b816145946001600160801b03871661271061557c565b61459e9190615593565b5f888152600d6020526040908190208290555190915087907fa8450bf668d8cfdcdb5e17b9d96a48cdd4126c7f8e8465888a2036d6fc6a9b9b906145e59084815260200190565b60405180910390a25f878152600a60209081526040808320805464ffffffffff421664ffffffffff199182168117909255600b84528285208054821683179055600f909352928190208054909216909217905551630530f7b360e31b8152600481018890526001600160a01b0385811660248301526044820184905287811660648301527f00000000000000000000000000000000000000000000000000000000000000001690632987bd98906084015f604051808303815f87803b1580156146ac575f80fd5b505af11580156146be573d5f803e3d5ffd5b5050604051634668075960e01b81526001600160a01b037f00000000000000000000000000000000000000000000000000000000000000001692506346680759915061221b908a9087906004016159f3565b5f805f805f61471e86614bba565b604051631e2eaeaf60e01b8152600481018290529091505f906001600160a01b03891690631e2eaeaf90602401602060405180830381865afa158015614766573d5f803e3d5ffd5b505050506040513d601f19601f8201168201806040525081019061478a91906156a2565b90506001600160a01b03811695508060a01c60020b945062ffffff8160b81c16935062ffffff8160d01c169250505092959194509250565b60020b5f60ff82901d80830118620d89e88111156147eb576147eb6345c3193d60e11b84614bd9565b7001fffcb933bd6fad37aa2d162d1a5940016001821602600160801b186002821615614827576ffff97272373d413259a46990580e213a0260801c5b6004821615614846576ffff2e50f5f656932ef12357cf3c7fdcc0260801c5b6008821615614865576fffe5caca7e10e4e61c3624eaa0941cd00260801c5b6010821615614884576fffcb9843d60f6159c9db58835c9266440260801c5b60208216156148a3576fff973b41fa98c081472e6896dfb254c00260801c5b60408216156148c2576fff2ea16466c96a3843ec78b326b528610260801c5b60808216156148e1576ffe5dee046a99a2a811c461f1969c30530260801c5b610100821615614901576ffcbe86c7900a88aedcffc83b479aa3a40260801c5b610200821615614921576ff987a7253ac413176f2b074cf7815e540260801c5b610400821615614941576ff3392b0822b70005940c7a398e4b70f30260801c5b610800821615614961576fe7159475a2c29b7443b29c7fa6e889d90260801c5b611000821615614981576fd097f3bdfd2022b8845ad8f792aa58250260801c5b6120008216156149a1576fa9f746462d870fdf8a65dc1f90e061e50260801c5b6140008216156149c1576f70d869a156d2a1b890bb3df62baf32f70260801c5b6180008216156149e1576f31be135f97d08fd981231505542fcfa60260801c5b62010000821615614a02576f09aa508b5b7a84e1c677de54f3e99bc90260801c5b62020000821615614a22576e5d6af8dedb81196699c329225ee6040260801c5b62040000821615614a41576d2216e584f5fa1ea926041bedfe980260801c5b62080000821615614a5e576b048a170391f7dc42444e8fa20260801c5b5f841315614a6a575f19045b63ffffffff0160201c9392505050565b5f826001600160a01b0316846001600160a01b03161115614a99579192915b826001600160a01b0316856001600160a01b031610614ab957505f613e3d565b5f846001600160a01b0316866001600160a01b031611614ad95784614adb565b855b9050614b236001600160801b038416614b14600160601b614afc8589615a8c565b6001600160a01b0316886001600160a01b0316614be8565b836001600160a01b0316614be8565b9695505050505050565b5f826001600160a01b0316846001600160a01b03161115614b4c579192915b836001600160a01b0316856001600160a01b031611614b6c57505f613e3d565b5f836001600160a01b0316866001600160a01b031610614b8c5783614b8e565b855b9050614b236001600160801b038416614ba78784615a8c565b6001600160a01b0316600160601b614be8565b6040515f90613919908390600690602001918252602082015260400190565b815f528060020b60045260245ffd5b5f838302815f1985870982811083820303915050808411614c07575f80fd5b805f03614c1957508290049050613b7a565b5f848688095f868103871696879004966002600389028118808a02820302808a02820302808a02820302808a02820302808a02820302808a02909103029181900381900460010186841190950394909402919094039290920491909117919091029150509392505050565b5f60208284031215614c94575f80fd5b5035919050565b6001600160a01b0381168114614caf575f80fd5b50565b5f8060408385031215614cc3575f80fd5b8235614cce81614c9b565b946020939093013593505050565b64ffffffffff81168114614caf575f80fd5b8035614cf981614cdc565b919050565b5f60208284031215614d0e575f80fd5b8135613b7a81614cdc565b5f60a08284031215614d29575f80fd5b50919050565b5f60808284031215614d29575f80fd5b5f8083601f840112614d4f575f80fd5b50813567ffffffffffffffff811115614d66575f80fd5b602083019150836020828501011115614d7d575f80fd5b9250929050565b5f805f805f6101608688031215614d99575f80fd5b8535614da481614c9b565b9450614db38760208801614d19565b9350614dc28760c08801614d2f565b925061014086013567ffffffffffffffff811115614dde575f80fd5b614dea88828901614d3f565b969995985093965092949392505050565b5f60208284031215614e0b575f80fd5b8135613b7a81614c9b565b5f60608284031215614d29575f80fd5b5f805f805f6101408688031215614e3b575f80fd5b8535614e4681614c9b565b9450614e558760208801614d19565b9350614e648760c08801614e16565b925061012086013567ffffffffffffffff811115614dde575f80fd5b5f8060408385031215614e91575f80fd5b823591506020830135614ea381614c9b565b809150509250929050565b5f805f805f805f6101a0888a031215614ec5575f80fd5b8735614ed081614c9b565b9650614edf8960208a01614d19565b9550614eee8960c08a01614d2f565b94506101408801359350610160880135925061018088013567ffffffffffffffff811115614f1a575f80fd5b614f268a828b01614d3f565b989b979a50959850939692959293505050565b8060020b8114614caf575f80fd5b5f805f806101008587031215614f5b575f80fd5b8435614f6681614c9b565b9350614f758660208701614d19565b925060c0850135614f8581614c9b565b915060e0850135614f9581614f39565b939692955090935050565b5f6101208201905064ffffffffff835116825264ffffffffff60208401511660208301526040830151614fd9604084018261ffff169052565b506060830151614fef606084018261ffff169052565b506080830151615005608084018261ffff169052565b5060a083015161501e60a084018264ffffffffff169052565b5060c083015161503460c084018261ffff169052565b5060e083015161504d60e084018264ffffffffff169052565b5061010083015161506361010084018215159052565b5092915050565b5f805f805f806101608789031215615080575f80fd5b863561508b81614c9b565b955061509a8860208901614d19565b94506150a98860c08901614e16565b9350610120870135925061014087013567ffffffffffffffff8111156150cd575f80fd5b6150d989828a01614d3f565b979a9699509497509295939492505050565b5f805f805f806101208789031215615101575f80fd5b863561510c81614c9b565b955061511b8860208901614d19565b945060c0870135935060e0870135925061010087013567ffffffffffffffff8111156150cd575f80fd5b8151151581526101c081016020830151615163602084018215159052565b506040830151615177604084018215159052565b50606083015161518b606084018215159052565b50608083015161519f608084018215159052565b5060a08301516151b360a084018215159052565b5060c08301516151c760c084018215159052565b5060e08301516151db60e084018215159052565b506101008301516151f161010084018215159052565b5061012083015161520761012084018215159052565b5061014083015161521d61014084018215159052565b5061016083015161523361016084018215159052565b5061018083015161524961018084018215159052565b506101a08301516150636101a084018215159052565b5f805f60e08486031215615271575f80fd5b833561527c81614c9b565b925061528b8560208601614d19565b915060c084013561529b81614c9b565b809150509250925092565b634e487b7160e01b5f52601160045260245ffd5b69ffffffffffffffffffff81811683821601908111156126cb576126cb6152a6565b604051610100810167ffffffffffffffff8111828210171561530c57634e487b7160e01b5f52604160045260245ffd5b60405290565b61ffff81168114614caf575f80fd5b8051614cf981615312565b8051614cf981614cdc565b5f610100828403128015615349575f80fd5b506153526152dc565b825161535d81615312565b815261536b60208401615321565b602082015261537c6040840161532c565b604082015261538d60608401615321565b606082015261539e6080840161532c565b60808201526153af60a08401615321565b60a08201526153c060c0840161532c565b60c08201526153d160e08401615321565b60e08201529392505050565b62ffffff81168114614caf575f80fd5b5f60a08284031280156153fe575f80fd5b5060405160a0810167ffffffffffffffff8111828210171561542e57634e487b7160e01b5f52604160045260245ffd5b604052823561543c81614c9b565b8152602083013561544c81614c9b565b6020820152604083013561545f816153dd565b6040820152606083013561547281614f39565b6060820152608083013561548581614c9b565b60808201529392505050565b5f600160ff1b82016154a5576154a56152a6565b505f0390565b8015158114614caf575f80fd5b5f602082840312156154c8575f80fd5b8151613b7a816154ab565b818103818111156126cb576126cb6152a6565b5f602082840312156154f6575f80fd5b81516001600160801b0381168114613b7a575f80fd5b634e487b7160e01b5f52602160045260245ffd5b6001600160a01b03841681525f6005841061553d5761553d61550c565b8360208301526060604083015282518060608401528060208501608085015e5f608082850101526080601f19601f830116840101915050949350505050565b80820281158282048414176126cb576126cb6152a6565b5f826155ad57634e487b7160e01b5f52601260045260245ffd5b500490565b808201808211156126cb576126cb6152a6565b80516001600160a01b03908116835260208083015182169084015260408083015162ffffff169084015260608083015160020b9084015260809182015116910152565b848152610100810161561d60208301866155c5565b6007841061562d5761562d61550c565b60c082019390935260e0015292915050565b5f6020828403121561564f575f80fd5b8135613b7a816154ab565b5f6020828403121561566a575f80fd5b8151613b7a81615312565b5f81600f0b6f7fffffffffffffffffffffffffffffff19810361569a5761569a6152a6565b5f0392915050565b5f602082840312156156b2575f80fd5b5051919050565b60c081016156c782856155c5565b6001600160a01b039290921660a09190910152919050565b60e081016156ed82866155c5565b6001600160801b039390931660a08201526001600160a01b039190911660c090910152919050565b64ffffffffff81811683821601908111156126cb576126cb6152a6565b8035614cf981615312565b5f610100828403121561574e575f80fd5b6157566152dc565b9050813561576381615312565b815261577160208301615732565b602082015261578260408301614cee565b604082015261579360608301615732565b60608201526157a460808301614cee565b60808201526157b560a08301615732565b60a08201526157c660c08301614cee565b60c08201526157d760e08301615732565b60e082015292915050565b5f805f805f808688036101c08112156157f9575f80fd5b873561580481614c9b565b9650602088013561581481614c9b565b9550604088013561582481614cdc565b9450606088013561583481614cdc565b93506040607f1982011215615847575f80fd5b506040805190810167ffffffffffffffff8111828210171561587757634e487b7160e01b5f52604160045260245ffd5b604052608088013561588881615312565b815260a088013561589881615312565b602082015291506158ac8860c0890161573d565b90509295509295509295565b80546001600160a01b0319166001600160a01b0392909216919091179055565b81356158e381614c9b565b6158ed81836158b8565b5060018101602083013561590081614c9b565b61590a81836158b8565b506040830135615919816153dd565b8154606085013561592981614f39565b8060b81b62ffffff60b81b1662ffffff60a01b8460a01b1665ffffffffffff60a01b19841617178455505050505f608083013561596581614c9b565b809150613b2581600285016158b8565b8681526001600160a01b03861660208201526001600160801b038516604082015264ffffffffff84811660608301528316608082015260e081016159cd60a0830184805161ffff908116835260209182015116910152565b979650505050505050565b5f602082840312156159e8575f80fd5b8135613b7a81614f39565b5f6101208201905083825261ffff835116602083015261ffff602084015116604083015264ffffffffff60408401511660608301526060830151615a3d608084018261ffff169052565b50608083015164ffffffffff811660a08401525060a083015161ffff811660c08401525060c083015164ffffffffff811660e08401525060e083015161ffff8116610100840152509392505050565b6001600160a01b0382811682821603908111156126cb576126cb6152a656fea26469706673582212202005f385925e68a1db11763f881341ea04086333dfc2852e81986266805b65e064736f6c634300081a0033","linkReferences":{}},"methodIdentifiers":{"GOVERNANCE()":"14627834","addBaseToken(address,uint256)":"0aa67e7f","afterAddLiquidity(address,(address,address,uint24,int24,address),(int24,int24,int256,bytes32),int256,int256,bytes)":"9f063efc","afterDonate(address,(address,address,uint24,int24,address),uint256,uint256,bytes)":"e1b4af69","afterInitialize(address,(address,address,uint24,int24,address),uint160,int24)":"6fe7e6eb","afterRemoveLiquidity(address,(address,address,uint24,int24,address),(int24,int24,int256,bytes32),int256,int256,bytes)":"6c2bbe7e","afterSwap(address,(address,address,uint24,int24,address),(bool,int256,uint160),int256,bytes)":"b47b2fb1","allowedBaseTokens(address)":"4e618ee4","bastionRouter()":"a626a7a6","beforeAddLiquidity(address,(address,address,uint24,int24,address),(int24,int24,int256,bytes32),bytes)":"259982e5","beforeDonate(address,(address,address,uint24,int24,address),uint256,uint256,bytes)":"b6a8b0fa","beforeInitialize(address,(address,address,uint24,int24,address),uint160)":"dc98354e","beforeRemoveLiquidity(address,(address,address,uint24,int24,address),(int24,int24,int256,bytes32),bytes)":"21d0ee70","beforeSwap(address,(address,address,uint24,int24,address),(bool,int256,uint160),bytes)":"575e24b4","defaultLockDuration()":"0fd6699b","defaultVestingDuration()":"d80317b6","escrowVault()":"8a2ae60b","executeTrigger(bytes32)":"38bddcd7","forceRemoveIssuerLP(bytes32)":"b7ac5a77","getHookPermissions()":"c4e833ce","getInitialTotalSupply(bytes32)":"261bb6ee","getLpRatioBps(bytes32)":"6f338194","getPoolCommitment(bytes32)":"854e8d5c","getPoolInfo(bytes32)":"09f2c019","getPoolIssuer(bytes32)":"6e3bed58","insurancePool()":"ab2adc00","isCommitmentStricterThanDefault(bytes32)":"0cddf456","isIssuer(bytes32,address)":"6023152e","isLPRemovalTriggerable(bytes32)":"e81e1778","isPoolTriggered(bytes32)":"85e98c26","maxPoolTVL()":"2600dc18","minBaseAmount(address)":"8398b039","minLockDuration()":"d6a298e9","minVestingDuration()":"74e555b6","poolManager()":"dc4c90d3","removeBaseToken(address)":"bbd1e122","reputationEngine()":"c3f677ef","setBastionRouter(address)":"425e0d44","setDefaultLockDuration(uint40)":"ac23186e","setDefaultVestingDuration(uint40)":"1a40bf93","setMaxPoolTVL(uint256)":"37877abd","setMinLockDuration(uint40)":"1fef0820","setMinVestingDuration(uint40)":"d420a4d5","syncFeeRate()":"5fa6ec49","transferGovernance(address)":"d38bfff4","triggerOracle()":"d1fe9536","updateMinBaseAmount(address,uint256)":"1b7d91de"},"id":61}